{
  "contractName": "ApeSurveyContract",
  "abi": [
    {
      "inputs": [],
      "stateMutability": "payable",
      "type": "constructor",
      "payable": true
    },
    {
      "anonymous": false,
      "inputs": [
        {
          "indexed": false,
          "internalType": "uint256",
          "name": "_fee",
          "type": "uint256"
        },
        {
          "indexed": false,
          "internalType": "uint256",
          "name": "ts",
          "type": "uint256"
        }
      ],
      "name": "FeeRevenueEvent",
      "type": "event"
    },
    {
      "anonymous": false,
      "inputs": [
        {
          "indexed": true,
          "internalType": "address",
          "name": "previousOwner",
          "type": "address"
        },
        {
          "indexed": true,
          "internalType": "address",
          "name": "newOwner",
          "type": "address"
        }
      ],
      "name": "OwnershipTransferred",
      "type": "event"
    },
    {
      "anonymous": false,
      "inputs": [
        {
          "indexed": false,
          "internalType": "address",
          "name": "_participant",
          "type": "address"
        },
        {
          "indexed": false,
          "internalType": "address",
          "name": "_creator",
          "type": "address"
        },
        {
          "indexed": false,
          "internalType": "string",
          "name": "_poolId",
          "type": "string"
        }
      ],
      "name": "RewardEarned",
      "type": "event"
    },
    {
      "anonymous": false,
      "inputs": [
        {
          "indexed": false,
          "internalType": "address",
          "name": "_user",
          "type": "address"
        },
        {
          "indexed": false,
          "internalType": "string",
          "name": "_poolId",
          "type": "string"
        },
        {
          "indexed": false,
          "internalType": "uint256",
          "name": "_amount",
          "type": "uint256"
        }
      ],
      "name": "RewardFundsReturned",
      "type": "event"
    },
    {
      "anonymous": false,
      "inputs": [
        {
          "indexed": false,
          "internalType": "address",
          "name": "_user",
          "type": "address"
        },
        {
          "indexed": false,
          "internalType": "string",
          "name": "_poolId",
          "type": "string"
        },
        {
          "indexed": false,
          "internalType": "uint256",
          "name": "_rewarded",
          "type": "uint256"
        }
      ],
      "name": "RewardPoolClosed",
      "type": "event"
    },
    {
      "anonymous": false,
      "inputs": [
        {
          "indexed": false,
          "internalType": "address",
          "name": "_user",
          "type": "address"
        },
        {
          "indexed": false,
          "internalType": "string",
          "name": "_poolId",
          "type": "string"
        },
        {
          "indexed": false,
          "internalType": "uint256",
          "name": "amount",
          "type": "uint256"
        },
        {
          "indexed": false,
          "internalType": "uint256",
          "name": "_newTotal",
          "type": "uint256"
        }
      ],
      "name": "RewardPoolIncreased",
      "type": "event"
    },
    {
      "anonymous": false,
      "inputs": [
        {
          "indexed": false,
          "internalType": "address",
          "name": "_participant",
          "type": "address"
        },
        {
          "indexed": false,
          "internalType": "string",
          "name": "_poolId",
          "type": "string"
        },
        {
          "indexed": false,
          "internalType": "uint256",
          "name": "_amount",
          "type": "uint256"
        }
      ],
      "name": "RewardsPaidOut",
      "type": "event"
    },
    {
      "anonymous": false,
      "inputs": [
        {
          "indexed": false,
          "internalType": "address",
          "name": "_user",
          "type": "address"
        },
        {
          "indexed": false,
          "internalType": "string",
          "name": "_poolId",
          "type": "string"
        },
        {
          "indexed": false,
          "internalType": "uint256",
          "name": "_amount",
          "type": "uint256"
        }
      ],
      "name": "SurveyFunded",
      "type": "event"
    },
    {
      "anonymous": false,
      "inputs": [
        {
          "indexed": false,
          "internalType": "uint256",
          "name": "_amount",
          "type": "uint256"
        },
        {
          "indexed": false,
          "internalType": "uint256",
          "name": "ts",
          "type": "uint256"
        }
      ],
      "name": "WithdrawlMade",
      "type": "event"
    },
    {
      "stateMutability": "payable",
      "type": "fallback",
      "payable": true
    },
    {
      "inputs": [],
      "name": "owner",
      "outputs": [
        {
          "internalType": "address",
          "name": "",
          "type": "address"
        }
      ],
      "stateMutability": "view",
      "type": "function",
      "constant": true
    },
    {
      "inputs": [],
      "name": "renounceOwnership",
      "outputs": [],
      "stateMutability": "nonpayable",
      "type": "function"
    },
    {
      "inputs": [
        {
          "internalType": "address",
          "name": "newOwner",
          "type": "address"
        }
      ],
      "name": "transferOwnership",
      "outputs": [],
      "stateMutability": "nonpayable",
      "type": "function"
    },
    {
      "stateMutability": "payable",
      "type": "receive",
      "payable": true
    },
    {
      "inputs": [],
      "name": "withdrawFees",
      "outputs": [],
      "stateMutability": "nonpayable",
      "type": "function"
    },
    {
      "inputs": [],
      "name": "getFeeBalance",
      "outputs": [
        {
          "internalType": "uint256",
          "name": "",
          "type": "uint256"
        }
      ],
      "stateMutability": "view",
      "type": "function",
      "constant": true
    },
    {
      "inputs": [
        {
          "internalType": "address",
          "name": "_user",
          "type": "address"
        }
      ],
      "name": "getUserRewardPoolIds",
      "outputs": [
        {
          "internalType": "bytes[]",
          "name": "",
          "type": "bytes[]"
        }
      ],
      "stateMutability": "view",
      "type": "function",
      "constant": true
    },
    {
      "inputs": [],
      "name": "getRewardPoolIds",
      "outputs": [
        {
          "internalType": "bytes[]",
          "name": "",
          "type": "bytes[]"
        }
      ],
      "stateMutability": "view",
      "type": "function",
      "constant": true
    },
    {
      "inputs": [
        {
          "internalType": "address",
          "name": "_user",
          "type": "address"
        },
        {
          "internalType": "string",
          "name": "_poolId",
          "type": "string"
        }
      ],
      "name": "getUserRewardPool",
      "outputs": [
        {
          "components": [
            {
              "internalType": "bytes",
              "name": "title",
              "type": "bytes"
            },
            {
              "internalType": "uint256",
              "name": "totalFunds",
              "type": "uint256"
            },
            {
              "internalType": "uint256",
              "name": "totalEarned",
              "type": "uint256"
            },
            {
              "internalType": "uint256",
              "name": "totalRewarded",
              "type": "uint256"
            },
            {
              "internalType": "bool",
              "name": "active",
              "type": "bool"
            },
            {
              "internalType": "uint256",
              "name": "responseReward",
              "type": "uint256"
            },
            {
              "internalType": "uint256",
              "name": "responses",
              "type": "uint256"
            },
            {
              "internalType": "address[]",
              "name": "participants",
              "type": "address[]"
            },
            {
              "internalType": "uint256",
              "name": "createdAt",
              "type": "uint256"
            },
            {
              "internalType": "uint256",
              "name": "closesAt",
              "type": "uint256"
            },
            {
              "internalType": "address",
              "name": "creator",
              "type": "address"
            }
          ],
          "internalType": "struct ApeSurveyContract.RewardPool",
          "name": "",
          "type": "tuple"
        }
      ],
      "stateMutability": "view",
      "type": "function",
      "constant": true
    },
    {
      "inputs": [
        {
          "internalType": "address",
          "name": "_user",
          "type": "address"
        }
      ],
      "name": "getUserRewards",
      "outputs": [
        {
          "components": [
            {
              "internalType": "address",
              "name": "participant",
              "type": "address"
            },
            {
              "internalType": "address",
              "name": "creator",
              "type": "address"
            },
            {
              "internalType": "bytes",
              "name": "surveyID",
              "type": "bytes"
            }
          ],
          "internalType": "struct ApeSurveyContract.Reward[]",
          "name": "",
          "type": "tuple[]"
        }
      ],
      "stateMutability": "view",
      "type": "function",
      "constant": true
    },
    {
      "inputs": [],
      "name": "getCurrentContractBalance",
      "outputs": [
        {
          "internalType": "uint256",
          "name": "",
          "type": "uint256"
        }
      ],
      "stateMutability": "view",
      "type": "function",
      "constant": true
    },
    {
      "inputs": [],
      "name": "getCurrentRewardPoolBalance",
      "outputs": [
        {
          "internalType": "uint256",
          "name": "",
          "type": "uint256"
        }
      ],
      "stateMutability": "view",
      "type": "function",
      "constant": true
    },
    {
      "inputs": [],
      "name": "getTotalRewardsPaidOut",
      "outputs": [
        {
          "internalType": "uint256",
          "name": "",
          "type": "uint256"
        }
      ],
      "stateMutability": "view",
      "type": "function",
      "constant": true
    },
    {
      "inputs": [],
      "name": "getTotalRewardPoolFunding",
      "outputs": [
        {
          "internalType": "uint256",
          "name": "",
          "type": "uint256"
        }
      ],
      "stateMutability": "view",
      "type": "function",
      "constant": true
    },
    {
      "inputs": [],
      "name": "getTotalResponses",
      "outputs": [
        {
          "internalType": "uint256",
          "name": "",
          "type": "uint256"
        }
      ],
      "stateMutability": "view",
      "type": "function",
      "constant": true
    },
    {
      "inputs": [],
      "name": "getTotalRewardPoolsFunded",
      "outputs": [
        {
          "internalType": "uint256",
          "name": "",
          "type": "uint256"
        }
      ],
      "stateMutability": "view",
      "type": "function",
      "constant": true
    },
    {
      "inputs": [
        {
          "internalType": "string",
          "name": "_id",
          "type": "string"
        },
        {
          "internalType": "string",
          "name": "_title",
          "type": "string"
        },
        {
          "internalType": "uint256",
          "name": "_amount",
          "type": "uint256"
        },
        {
          "internalType": "uint256",
          "name": "_fee",
          "type": "uint256"
        },
        {
          "internalType": "uint256",
          "name": "_responseReward",
          "type": "uint256"
        }
      ],
      "name": "createRewardPool",
      "outputs": [],
      "stateMutability": "payable",
      "type": "function",
      "payable": true
    },
    {
      "inputs": [
        {
          "internalType": "string",
          "name": "_poolId",
          "type": "string"
        }
      ],
      "name": "getRewardPool",
      "outputs": [
        {
          "internalType": "string",
          "name": "",
          "type": "string"
        },
        {
          "internalType": "uint256",
          "name": "",
          "type": "uint256"
        },
        {
          "internalType": "uint256",
          "name": "",
          "type": "uint256"
        },
        {
          "internalType": "uint256",
          "name": "",
          "type": "uint256"
        },
        {
          "internalType": "bool",
          "name": "",
          "type": "bool"
        },
        {
          "internalType": "uint256",
          "name": "",
          "type": "uint256"
        },
        {
          "internalType": "uint256",
          "name": "",
          "type": "uint256"
        },
        {
          "internalType": "uint256",
          "name": "",
          "type": "uint256"
        },
        {
          "internalType": "uint256",
          "name": "",
          "type": "uint256"
        },
        {
          "internalType": "address",
          "name": "",
          "type": "address"
        }
      ],
      "stateMutability": "view",
      "type": "function",
      "constant": true
    },
    {
      "inputs": [
        {
          "internalType": "uint256",
          "name": "_amount",
          "type": "uint256"
        },
        {
          "internalType": "uint256",
          "name": "_fee",
          "type": "uint256"
        },
        {
          "internalType": "string",
          "name": "_poolId",
          "type": "string"
        }
      ],
      "name": "rewardPoolIncrease",
      "outputs": [],
      "stateMutability": "payable",
      "type": "function",
      "payable": true
    },
    {
      "inputs": [
        {
          "internalType": "address payable",
          "name": "_user",
          "type": "address"
        },
        {
          "internalType": "string",
          "name": "_poolId",
          "type": "string"
        },
        {
          "internalType": "address[]",
          "name": "participants",
          "type": "address[]"
        }
      ],
      "name": "closeRewardPool",
      "outputs": [],
      "stateMutability": "nonpayable",
      "type": "function"
    },
    {
      "inputs": [],
      "name": "getRewards",
      "outputs": [
        {
          "components": [
            {
              "internalType": "address",
              "name": "participant",
              "type": "address"
            },
            {
              "internalType": "address",
              "name": "creator",
              "type": "address"
            },
            {
              "internalType": "bytes",
              "name": "surveyID",
              "type": "bytes"
            }
          ],
          "internalType": "struct ApeSurveyContract.Reward[]",
          "name": "",
          "type": "tuple[]"
        }
      ],
      "stateMutability": "view",
      "type": "function",
      "constant": true
    }
  ],
  "bytecode": "0x608060405262000024620000186200002a60201b60201c565b6200003260201b60201c565b620000f6565b600033905090565b60008060009054906101000a900473ffffffffffffffffffffffffffffffffffffffff169050816000806101000a81548173ffffffffffffffffffffffffffffffffffffffff021916908373ffffffffffffffffffffffffffffffffffffffff1602179055508173ffffffffffffffffffffffffffffffffffffffff168173ffffffffffffffffffffffffffffffffffffffff167f8be0079c531659141344cd1fd0a4f28419497f9722a3daafe3b4186f6b6457e060405160405180910390a35050565b614a5980620001066000396000f3fe6080604052600436106101235760003560e01c80638da5cb5b116100a0578063d4c30ceb11610064578063d4c30ceb146104a4578063f2fde38b146104cf578063f75886ce146104f8578063f8d42c1514610523578063f9f55ee61461054e5761019f565b80638da5cb5b146103c15780639f8069a4146103ec578063b05784fa14610417578063c229f19014610442578063d105f7151461045e5761019f565b8063476343ee116100e7578063476343ee146102ee5780636ae6fcac146103055780636d790081146103425780636e630bcf1461036d578063715018a6146103aa5761019f565b80630572b0cc14610216578063058d417b14610241578063078b0fb71461026c578063219f07ad146102a95780632960a19a146102c55761019f565b3661019f57610130610579565b73ffffffffffffffffffffffffffffffffffffffff163373ffffffffffffffffffffffffffffffffffffffff161461019d576040517f08c379a00000000000000000000000000000000000000000000000000000000081526004016101949061309f565b60405180910390fd5b005b6101a7610579565b73ffffffffffffffffffffffffffffffffffffffff163373ffffffffffffffffffffffffffffffffffffffff1614610214576040517f08c379a000000000000000000000000000000000000000000000000000000000815260040161020b9061309f565b60405180910390fd5b005b34801561022257600080fd5b5061022b6105a2565b60405161023891906132ab565b60405180910390f35b34801561024d57600080fd5b5061025661077c565b60405161026391906132e6565b60405180910390f35b34801561027857600080fd5b50610293600480360381019061028e9190613341565b610802565b6040516102a091906132ab565b60405180910390f35b6102c360048036038101906102be91906134cf565b610a5a565b005b3480156102d157600080fd5b506102ec60048036038101906102e79190613688565b61127e565b005b3480156102fa57600080fd5b506103036118b3565b005b34801561031157600080fd5b5061032c60048036038101906103279190613713565b611a09565b604051610339919061393e565b60405180910390f35b34801561034e57600080fd5b50610357611cd3565b60405161036491906132e6565b60405180910390f35b34801561037957600080fd5b50610394600480360381019061038f9190613341565b611d59565b6040516103a19190613a22565b60405180910390f35b3480156103b657600080fd5b506103bf611eed565b005b3480156103cd57600080fd5b506103d6610579565b6040516103e39190613a53565b60405180910390f35b3480156103f857600080fd5b50610401611f75565b60405161040e91906132e6565b60405180910390f35b34801561042357600080fd5b5061042c611ffb565b6040516104399190613a22565b60405180910390f35b61045c60048036038101906104579190613a6e565b612111565b005b34801561046a57600080fd5b5061048560048036038101906104809190613add565b61277c565b60405161049b9a99989796959493929190613b79565b60405180910390f35b3480156104b057600080fd5b506104b9612aa1565b6040516104c691906132e6565b60405180910390f35b3480156104db57600080fd5b506104f660048036038101906104f19190613341565b612b27565b005b34801561050457600080fd5b5061050d612c1f565b60405161051a91906132e6565b60405180910390f35b34801561052f57600080fd5b50610538612ca5565b60405161054591906132e6565b60405180910390f35b34801561055a57600080fd5b50610563612d2b565b60405161057091906132e6565b60405180910390f35b60008060009054906101000a900473ffffffffffffffffffffffffffffffffffffffff16905090565b6060600360003373ffffffffffffffffffffffffffffffffffffffff1673ffffffffffffffffffffffffffffffffffffffff168152602001908152602001600020805480602002602001604051908101604052809291908181526020016000905b8282101561077357838290600052602060002090600302016040518060600160405290816000820160009054906101000a900473ffffffffffffffffffffffffffffffffffffffff1673ffffffffffffffffffffffffffffffffffffffff1673ffffffffffffffffffffffffffffffffffffffff1681526020016001820160009054906101000a900473ffffffffffffffffffffffffffffffffffffffff1673ffffffffffffffffffffffffffffffffffffffff1673ffffffffffffffffffffffffffffffffffffffff1681526020016002820180546106e290613c4b565b80601f016020809104026020016040519081016040528092919081815260200182805461070e90613c4b565b801561075b5780601f106107305761010080835404028352916020019161075b565b820191906000526020600020905b81548152906001019060200180831161073e57829003601f168201915b50505050508152505081526020019060010190610603565b50505050905090565b6000610786612db1565b73ffffffffffffffffffffffffffffffffffffffff166107a4610579565b73ffffffffffffffffffffffffffffffffffffffff16146107fa576040517f08c379a00000000000000000000000000000000000000000000000000000000081526004016107f190613cc9565b60405180910390fd5b600a54905090565b606061080c612db1565b73ffffffffffffffffffffffffffffffffffffffff1661082a610579565b73ffffffffffffffffffffffffffffffffffffffff1614610880576040517f08c379a000000000000000000000000000000000000000000000000000000000815260040161087790613cc9565b60405180910390fd5b600360008373ffffffffffffffffffffffffffffffffffffffff1673ffffffffffffffffffffffffffffffffffffffff168152602001908152602001600020805480602002602001604051908101604052809291908181526020016000905b82821015610a4f57838290600052602060002090600302016040518060600160405290816000820160009054906101000a900473ffffffffffffffffffffffffffffffffffffffff1673ffffffffffffffffffffffffffffffffffffffff1673ffffffffffffffffffffffffffffffffffffffff1681526020016001820160009054906101000a900473ffffffffffffffffffffffffffffffffffffffff1673ffffffffffffffffffffffffffffffffffffffff1673ffffffffffffffffffffffffffffffffffffffff1681526020016002820180546109be90613c4b565b80601f01602080910402602001604051908101604052809291908181526020018280546109ea90613c4b565b8015610a375780601f10610a0c57610100808354040283529160200191610a37565b820191906000526020600020905b815481529060010190602001808311610a1a57829003601f168201915b505050505081525050815260200190600101906108df565b505050509050919050565b6000849050600086905060008511610aa7576040517f08c379a0000000000000000000000000000000000000000000000000000000008152600401610a9e90613d35565b60405180910390fd5b60008411610aea576040517f08c379a0000000000000000000000000000000000000000000000000000000008152600401610ae190613da1565b60405180910390fd5b348486610af79190613df0565b14610b37576040517f08c379a0000000000000000000000000000000000000000000000000000000008152600401610b2e90613ede565b60405180910390fd5b84601485610b459190613efe565b14610b85576040517f08c379a0000000000000000000000000000000000000000000000000000000008152600401610b7c90613fca565b60405180910390fd5b600081511415610bca576040517f08c379a0000000000000000000000000000000000000000000000000000000008152600401610bc190614036565b60405180910390fd5b600082511415610c0f576040517f08c379a0000000000000000000000000000000000000000000000000000000008152600401610c06906140a2565b60405180910390fd5b84831115610c52576040517f08c379a0000000000000000000000000000000000000000000000000000000008152600401610c4990614134565b60405180910390fd5b60008386610c609190614183565b14610ca0576040517f08c379a0000000000000000000000000000000000000000000000000000000008152600401610c9790614226565b60405180910390fd5b6000600260003373ffffffffffffffffffffffffffffffffffffffff1673ffffffffffffffffffffffffffffffffffffffff16815260200190815260200160002082604051610cef9190614282565b908152602001604051809103902060405180610160016040529081600082018054610d1990613c4b565b80601f0160208091040260200160405190810160405280929190818152602001828054610d4590613c4b565b8015610d925780601f10610d6757610100808354040283529160200191610d92565b820191906000526020600020905b815481529060010190602001808311610d7557829003601f168201915b505050505081526020016001820154815260200160028201548152602001600382015481526020016004820160009054906101000a900460ff16151515158152602001600582015481526020016006820154815260200160078201805480602002602001604051908101604052809291908181526020018280548015610e6d57602002820191906000526020600020905b8160009054906101000a900473ffffffffffffffffffffffffffffffffffffffff1673ffffffffffffffffffffffffffffffffffffffff1681526020019060010190808311610e23575b505050505081526020016008820154815260200160098201548152602001600a820160009054906101000a900473ffffffffffffffffffffffffffffffffffffffff1673ffffffffffffffffffffffffffffffffffffffff1673ffffffffffffffffffffffffffffffffffffffff1681525050905060008073ffffffffffffffffffffffffffffffffffffffff1682610140015173ffffffffffffffffffffffffffffffffffffffff1614610f57576040517f08c379a0000000000000000000000000000000000000000000000000000000008152600401610f4e9061430b565b60405180910390fd5b60606040518061016001604052808681526020018981526020016000815260200160008152602001600115158152602001878152602001600081526020018281526020014281526020014281526020013373ffffffffffffffffffffffffffffffffffffffff16815250600260003373ffffffffffffffffffffffffffffffffffffffff1673ffffffffffffffffffffffffffffffffffffffff1681526020019081526020016000208560405161100e9190614282565b90815260200160405180910390206000820151816000019080519060200190611038929190612e7d565b5060208201518160010155604082015181600201556060820151816003015560808201518160040160006101000a81548160ff02191690831515021790555060a0820151816005015560c0820151816006015560e08201518160070190805190602001906110a7929190612f03565b506101008201518160080155610120820151816009015561014082015181600a0160006101000a81548173ffffffffffffffffffffffffffffffffffffffff021916908373ffffffffffffffffffffffffffffffffffffffff160217905550905050600160003373ffffffffffffffffffffffffffffffffffffffff1673ffffffffffffffffffffffffffffffffffffffff16815260200190815260200160002085908060018154018082558091505060019003906000526020600020016000909190919091509080519060200190611181929190612e7d565b5034600460008282546111949190613df0565b9250508190555087600560008282546111ad9190613df0565b9250508190555087600860008282546111c69190613df0565b92505081905550600a60008154809291906111e09061432b565b919050555086600660008282546111f79190613df0565b925050819055507f09d572a5aefe644af47fbc70d53c8abec273658b218e1b70215c855dce846d6e33858a60405161123193929190614374565b60405180910390a17f8056052aa2662ff6261ec500d371c052d9e99a7fdbb9cab8746631d59bbc6111874260405161126a9291906143b2565b60405180910390a150505050505050505050565b611286612db1565b73ffffffffffffffffffffffffffffffffffffffff166112a4610579565b73ffffffffffffffffffffffffffffffffffffffff16146112fa576040517f08c379a00000000000000000000000000000000000000000000000000000000081526004016112f190613cc9565b60405180910390fd5b60008073ffffffffffffffffffffffffffffffffffffffff168473ffffffffffffffffffffffffffffffffffffffff16141561136b576040517f08c379a00000000000000000000000000000000000000000000000000000000081526004016113629061444d565b60405180910390fd5b6000600260008673ffffffffffffffffffffffffffffffffffffffff1673ffffffffffffffffffffffffffffffffffffffff168152602001908152602001600020846040516113ba9190614282565b9081526020016040518091039020604051806101600160405290816000820180546113e490613c4b565b80601f016020809104026020016040519081016040528092919081815260200182805461141090613c4b565b801561145d5780601f106114325761010080835404028352916020019161145d565b820191906000526020600020905b81548152906001019060200180831161144057829003601f168201915b505050505081526020016001820154815260200160028201548152602001600382015481526020016004820160009054906101000a900460ff1615151515815260200160058201548152602001600682015481526020016007820180548060200260200160405190810160405280929190818152602001828054801561153857602002820191906000526020600020905b8160009054906101000a900473ffffffffffffffffffffffffffffffffffffffff1673ffffffffffffffffffffffffffffffffffffffff16815260200190600101908083116114ee575b505050505081526020016008820154815260200160098201548152602001600a820160009054906101000a900473ffffffffffffffffffffffffffffffffffffffff1673ffffffffffffffffffffffffffffffffffffffff1673ffffffffffffffffffffffffffffffffffffffff168152505090508173ffffffffffffffffffffffffffffffffffffffff1681610140015173ffffffffffffffffffffffffffffffffffffffff161415611621576040517f08c379a0000000000000000000000000000000000000000000000000000000008152600401611618906144df565b60405180910390fd5b6001151581608001511515148061163c575042816101200151105b61167b576040517f08c379a000000000000000000000000000000000000000000000000000000000815260040161167290614571565b60405180910390fd5b600083518260a0015161168e9190613efe565b905060008183602001516116a29190614591565b905081600760008282546116b69190613df0565b925050819055508451600960008282546116d09190613df0565b925050819055508260200151600460008282546116ed9190614591565b9250508190555082602001516005600082825461170a9190614591565b925050819055508673ffffffffffffffffffffffffffffffffffffffff166108fc829081150290604051600060405180830381858888f19350505050158015611757573d6000803e3d6000fd5b5060005b8551811015611821576000868281518110611779576117786145c5565b5b602002602001015190508073ffffffffffffffffffffffffffffffffffffffff166108fc8660a001519081150290604051600060405180830381858888f193505050501580156117cd573d6000803e3d6000fd5b507f519085643c949775f22af93dbc5bc95d6b65743db328efd1fb080091652d2a6581898760a0015160405161180593929190614374565b60405180910390a15080806118199061432b565b91505061175b565b5060008360800190151590811515815250507f16be4bc3064d0caca16b4339db3e6e33e5b8179fa4a62a6edff6b66fc186432e8787875160405161186793929190614653565b60405180910390a17fa436671c7bfefbda979312e5a5c6e180c9f2a96145e703d702116f59df41445d8787836040516118a293929190614653565b60405180910390a150505050505050565b6118bb612db1565b73ffffffffffffffffffffffffffffffffffffffff166118d9610579565b73ffffffffffffffffffffffffffffffffffffffff161461192f576040517f08c379a000000000000000000000000000000000000000000000000000000000815260040161192690613cc9565b60405180910390fd5b600060065411611974576040517f08c379a000000000000000000000000000000000000000000000000000000000815260040161196b90614703565b60405180910390fd5b61197c610579565b73ffffffffffffffffffffffffffffffffffffffff166108fc6006549081150290604051600060405180830381858888f193505050501580156119c3573d6000803e3d6000fd5b507f24ada13bed24dcd7a8e6c8eeb3d1ee84624232c5b30cc42fed313d7cdb7e8848600654426040516119f79291906143b2565b60405180910390a16000600681905550565b611a11612f8d565b611a19612db1565b73ffffffffffffffffffffffffffffffffffffffff16611a37610579565b73ffffffffffffffffffffffffffffffffffffffff1614611a8d576040517f08c379a0000000000000000000000000000000000000000000000000000000008152600401611a8490613cc9565b60405180910390fd5b600260008473ffffffffffffffffffffffffffffffffffffffff1673ffffffffffffffffffffffffffffffffffffffff16815260200190815260200160002082604051611ada9190614282565b908152602001604051809103902060405180610160016040529081600082018054611b0490613c4b565b80601f0160208091040260200160405190810160405280929190818152602001828054611b3090613c4b565b8015611b7d5780601f10611b5257610100808354040283529160200191611b7d565b820191906000526020600020905b815481529060010190602001808311611b6057829003601f168201915b505050505081526020016001820154815260200160028201548152602001600382015481526020016004820160009054906101000a900460ff16151515158152602001600582015481526020016006820154815260200160078201805480602002602001604051908101604052809291908181526020018280548015611c5857602002820191906000526020600020905b8160009054906101000a900473ffffffffffffffffffffffffffffffffffffffff1673ffffffffffffffffffffffffffffffffffffffff1681526020019060010190808311611c0e575b505050505081526020016008820154815260200160098201548152602001600a820160009054906101000a900473ffffffffffffffffffffffffffffffffffffffff1673ffffffffffffffffffffffffffffffffffffffff1673ffffffffffffffffffffffffffffffffffffffff1681525050905092915050565b6000611cdd612db1565b73ffffffffffffffffffffffffffffffffffffffff16611cfb610579565b73ffffffffffffffffffffffffffffffffffffffff1614611d51576040517f08c379a0000000000000000000000000000000000000000000000000000000008152600401611d4890613cc9565b60405180910390fd5b600454905090565b6060611d63612db1565b73ffffffffffffffffffffffffffffffffffffffff16611d81610579565b73ffffffffffffffffffffffffffffffffffffffff1614611dd7576040517f08c379a0000000000000000000000000000000000000000000000000000000008152600401611dce90613cc9565b60405180910390fd5b600160008373ffffffffffffffffffffffffffffffffffffffff1673ffffffffffffffffffffffffffffffffffffffff168152602001908152602001600020805480602002602001604051908101604052809291908181526020016000905b82821015611ee2578382906000526020600020018054611e5590613c4b565b80601f0160208091040260200160405190810160405280929190818152602001828054611e8190613c4b565b8015611ece5780601f10611ea357610100808354040283529160200191611ece565b820191906000526020600020905b815481529060010190602001808311611eb157829003601f168201915b505050505081526020019060010190611e36565b505050509050919050565b611ef5612db1565b73ffffffffffffffffffffffffffffffffffffffff16611f13610579565b73ffffffffffffffffffffffffffffffffffffffff1614611f69576040517f08c379a0000000000000000000000000000000000000000000000000000000008152600401611f6090613cc9565b60405180910390fd5b611f736000612db9565b565b6000611f7f612db1565b73ffffffffffffffffffffffffffffffffffffffff16611f9d610579565b73ffffffffffffffffffffffffffffffffffffffff1614611ff3576040517f08c379a0000000000000000000000000000000000000000000000000000000008152600401611fea90613cc9565b60405180910390fd5b600554905090565b6060600160003373ffffffffffffffffffffffffffffffffffffffff1673ffffffffffffffffffffffffffffffffffffffff168152602001908152602001600020805480602002602001604051908101604052809291908181526020016000905b8282101561210857838290600052602060002001805461207b90613c4b565b80601f01602080910402602001604051908101604052809291908181526020018280546120a790613c4b565b80156120f45780601f106120c9576101008083540402835291602001916120f4565b820191906000526020600020905b8154815290600101906020018083116120d757829003601f168201915b50505050508152602001906001019061205c565b50505050905090565b60008311612154576040517f08c379a000000000000000000000000000000000000000000000000000000000815260040161214b90614795565b60405180910390fd5b60008211612197576040517f08c379a000000000000000000000000000000000000000000000000000000000815260040161218e90613da1565b60405180910390fd5b3482846121a49190613df0565b146121e4576040517f08c379a00000000000000000000000000000000000000000000000000000000081526004016121db90613ede565b60405180910390fd5b826014836121f29190613efe565b14612232576040517f08c379a000000000000000000000000000000000000000000000000000000000815260040161222990614827565b60405180910390fd5b6000600260003373ffffffffffffffffffffffffffffffffffffffff1673ffffffffffffffffffffffffffffffffffffffff168152602001908152602001600020826040516122819190614282565b9081526020016040518091039020604051806101600160405290816000820180546122ab90613c4b565b80601f01602080910402602001604051908101604052809291908181526020018280546122d790613c4b565b80156123245780601f106122f957610100808354040283529160200191612324565b820191906000526020600020905b81548152906001019060200180831161230757829003601f168201915b505050505081526020016001820154815260200160028201548152602001600382015481526020016004820160009054906101000a900460ff161515151581526020016005820154815260200160068201548152602001600782018054806020026020016040519081016040528092919081815260200182805480156123ff57602002820191906000526020600020905b8160009054906101000a900473ffffffffffffffffffffffffffffffffffffffff1673ffffffffffffffffffffffffffffffffffffffff16815260200190600101908083116123b5575b505050505081526020016008820154815260200160098201548152602001600a820160009054906101000a900473ffffffffffffffffffffffffffffffffffffffff1673ffffffffffffffffffffffffffffffffffffffff1673ffffffffffffffffffffffffffffffffffffffff1681525050905060008073ffffffffffffffffffffffffffffffffffffffff1682610140015173ffffffffffffffffffffffffffffffffffffffff1614156124ea576040517f08c379a00000000000000000000000000000000000000000000000000000000081526004016124e190614893565b60405180910390fd5b600115158260800151151514612535576040517f08c379a000000000000000000000000000000000000000000000000000000000815260040161252c90614925565b60405180910390fd5b84826020018181516125479190613df0565b9150818152505081600260003373ffffffffffffffffffffffffffffffffffffffff1673ffffffffffffffffffffffffffffffffffffffff1681526020019081526020016000208460405161259c9190614282565b908152602001604051809103902060008201518160000190805190602001906125c6929190612e7d565b5060208201518160010155604082015181600201556060820151816003015560808201518160040160006101000a81548160ff02191690831515021790555060a0820151816005015560c0820151816006015560e0820151816007019080519060200190612635929190612f03565b506101008201518160080155610120820151816009015561014082015181600a0160006101000a81548173ffffffffffffffffffffffffffffffffffffffff021916908373ffffffffffffffffffffffffffffffffffffffff16021790555090505083600660008282546126a99190613df0565b9250508190555084600860008282546126c29190613df0565b9250508190555034600460008282546126db9190613df0565b9250508190555084600560008282546126f49190613df0565b925050819055507f3a9f2dd046341dbf48e193a8d64210036389758bacaf4956775e09e0eb4e434333848785602001516040516127349493929190614945565b60405180910390a17f8056052aa2662ff6261ec500d371c052d9e99a7fdbb9cab8746631d59bbc6111844260405161276d9291906143b2565b60405180910390a15050505050565b60606000806000806000806000806000808b90506000600260003373ffffffffffffffffffffffffffffffffffffffff1673ffffffffffffffffffffffffffffffffffffffff168152602001908152602001600020826040516127df9190614282565b90815260200160405180910390206040518061016001604052908160008201805461280990613c4b565b80601f016020809104026020016040519081016040528092919081815260200182805461283590613c4b565b80156128825780601f1061285757610100808354040283529160200191612882565b820191906000526020600020905b81548152906001019060200180831161286557829003601f168201915b505050505081526020016001820154815260200160028201548152602001600382015481526020016004820160009054906101000a900460ff1615151515815260200160058201548152602001600682015481526020016007820180548060200260200160405190810160405280929190818152602001828054801561295d57602002820191906000526020600020905b8160009054906101000a900473ffffffffffffffffffffffffffffffffffffffff1673ffffffffffffffffffffffffffffffffffffffff1681526020019060010190808311612913575b505050505081526020016008820154815260200160098201548152602001600a820160009054906101000a900473ffffffffffffffffffffffffffffffffffffffff1673ffffffffffffffffffffffffffffffffffffffff1673ffffffffffffffffffffffffffffffffffffffff1681525050905060008073ffffffffffffffffffffffffffffffffffffffff1682610140015173ffffffffffffffffffffffffffffffffffffffff161415612a48576040517f08c379a0000000000000000000000000000000000000000000000000000000008152600401612a3f90614893565b60405180910390fd5b816000015182602001518360400151846060015185608001518660a001518760c001518861010001518961012001518a61014001519c509c509c509c509c509c509c509c509c509c505050509193959799509193959799565b6000612aab612db1565b73ffffffffffffffffffffffffffffffffffffffff16612ac9610579565b73ffffffffffffffffffffffffffffffffffffffff1614612b1f576040517f08c379a0000000000000000000000000000000000000000000000000000000008152600401612b1690613cc9565b60405180910390fd5b600654905090565b612b2f612db1565b73ffffffffffffffffffffffffffffffffffffffff16612b4d610579565b73ffffffffffffffffffffffffffffffffffffffff1614612ba3576040517f08c379a0000000000000000000000000000000000000000000000000000000008152600401612b9a90613cc9565b60405180910390fd5b600073ffffffffffffffffffffffffffffffffffffffff168173ffffffffffffffffffffffffffffffffffffffff161415612c13576040517f08c379a0000000000000000000000000000000000000000000000000000000008152600401612c0a90614a03565b60405180910390fd5b612c1c81612db9565b50565b6000612c29612db1565b73ffffffffffffffffffffffffffffffffffffffff16612c47610579565b73ffffffffffffffffffffffffffffffffffffffff1614612c9d576040517f08c379a0000000000000000000000000000000000000000000000000000000008152600401612c9490613cc9565b60405180910390fd5b600954905090565b6000612caf612db1565b73ffffffffffffffffffffffffffffffffffffffff16612ccd610579565b73ffffffffffffffffffffffffffffffffffffffff1614612d23576040517f08c379a0000000000000000000000000000000000000000000000000000000008152600401612d1a90613cc9565b60405180910390fd5b600854905090565b6000612d35612db1565b73ffffffffffffffffffffffffffffffffffffffff16612d53610579565b73ffffffffffffffffffffffffffffffffffffffff1614612da9576040517f08c379a0000000000000000000000000000000000000000000000000000000008152600401612da090613cc9565b60405180910390fd5b600754905090565b600033905090565b60008060009054906101000a900473ffffffffffffffffffffffffffffffffffffffff169050816000806101000a81548173ffffffffffffffffffffffffffffffffffffffff021916908373ffffffffffffffffffffffffffffffffffffffff1602179055508173ffffffffffffffffffffffffffffffffffffffff168173ffffffffffffffffffffffffffffffffffffffff167f8be0079c531659141344cd1fd0a4f28419497f9722a3daafe3b4186f6b6457e060405160405180910390a35050565b828054612e8990613c4b565b90600052602060002090601f016020900481019282612eab5760008555612ef2565b82601f10612ec457805160ff1916838001178555612ef2565b82800160010185558215612ef2579182015b82811115612ef1578251825591602001919060010190612ed6565b5b509050612eff9190612fff565b5090565b828054828255906000526020600020908101928215612f7c579160200282015b82811115612f7b5782518260006101000a81548173ffffffffffffffffffffffffffffffffffffffff021916908373ffffffffffffffffffffffffffffffffffffffff16021790555091602001919060010190612f23565b5b509050612f899190612fff565b5090565b604051806101600160405280606081526020016000815260200160008152602001600081526020016000151581526020016000815260200160008152602001606081526020016000815260200160008152602001600073ffffffffffffffffffffffffffffffffffffffff1681525090565b5b80821115613018576000816000905550600101613000565b5090565b600082825260208201905092915050565b7f4f6e6c7920746865206f776e65722063616e2073656e642066756e647320766960008201527f61207468652066616c6c6261636b2066756e6374696f6e2e0000000000000000602082015250565b600061308960388361301c565b91506130948261302d565b604082019050919050565b600060208201905081810360008301526130b88161307c565b9050919050565b600081519050919050565b600082825260208201905092915050565b6000819050602082019050919050565b600073ffffffffffffffffffffffffffffffffffffffff82169050919050565b6000613116826130eb565b9050919050565b6131268161310b565b82525050565b600081519050919050565b600082825260208201905092915050565b60005b8381101561316657808201518184015260208101905061314b565b83811115613175576000848401525b50505050565b6000601f19601f8301169050919050565b60006131978261312c565b6131a18185613137565b93506131b1818560208601613148565b6131ba8161317b565b840191505092915050565b60006060830160008301516131dd600086018261311d565b5060208301516131f0602086018261311d565b5060408301518482036040860152613208828261318c565b9150508091505092915050565b600061322183836131c5565b905092915050565b6000602082019050919050565b6000613241826130bf565b61324b81856130ca565b93508360208202850161325d856130db565b8060005b85811015613299578484038952815161327a8582613215565b945061328583613229565b925060208a01995050600181019050613261565b50829750879550505050505092915050565b600060208201905081810360008301526132c58184613236565b905092915050565b6000819050919050565b6132e0816132cd565b82525050565b60006020820190506132fb60008301846132d7565b92915050565b6000604051905090565b600080fd5b600080fd5b61331e8161310b565b811461332957600080fd5b50565b60008135905061333b81613315565b92915050565b6000602082840312156133575761335661330b565b5b60006133658482850161332c565b91505092915050565b600080fd5b600080fd5b7f4e487b7100000000000000000000000000000000000000000000000000000000600052604160045260246000fd5b6133b08261317b565b810181811067ffffffffffffffff821117156133cf576133ce613378565b5b80604052505050565b60006133e2613301565b90506133ee82826133a7565b919050565b600067ffffffffffffffff82111561340e5761340d613378565b5b6134178261317b565b9050602081019050919050565b82818337600083830152505050565b6000613446613441846133f3565b6133d8565b90508281526020810184848401111561346257613461613373565b5b61346d848285613424565b509392505050565b600082601f83011261348a5761348961336e565b5b813561349a848260208601613433565b91505092915050565b6134ac816132cd565b81146134b757600080fd5b50565b6000813590506134c9816134a3565b92915050565b600080600080600060a086880312156134eb576134ea61330b565b5b600086013567ffffffffffffffff81111561350957613508613310565b5b61351588828901613475565b955050602086013567ffffffffffffffff81111561353657613535613310565b5b61354288828901613475565b9450506040613553888289016134ba565b9350506060613564888289016134ba565b9250506080613575888289016134ba565b9150509295509295909350565b600061358d826130eb565b9050919050565b61359d81613582565b81146135a857600080fd5b50565b6000813590506135ba81613594565b92915050565b600067ffffffffffffffff8211156135db576135da613378565b5b602082029050602081019050919050565b600080fd5b60006136046135ff846135c0565b6133d8565b90508083825260208201905060208402830185811115613627576136266135ec565b5b835b81811015613650578061363c888261332c565b845260208401935050602081019050613629565b5050509392505050565b600082601f83011261366f5761366e61336e565b5b813561367f8482602086016135f1565b91505092915050565b6000806000606084860312156136a1576136a061330b565b5b60006136af868287016135ab565b935050602084013567ffffffffffffffff8111156136d0576136cf613310565b5b6136dc86828701613475565b925050604084013567ffffffffffffffff8111156136fd576136fc613310565b5b6137098682870161365a565b9150509250925092565b6000806040838503121561372a5761372961330b565b5b60006137388582860161332c565b925050602083013567ffffffffffffffff81111561375957613758613310565b5b61376585828601613475565b9150509250929050565b613778816132cd565b82525050565b60008115159050919050565b6137938161377e565b82525050565b600081519050919050565b600082825260208201905092915050565b6000819050602082019050919050565b60006137d1838361311d565b60208301905092915050565b6000602082019050919050565b60006137f582613799565b6137ff81856137a4565b935061380a836137b5565b8060005b8381101561383b57815161382288826137c5565b975061382d836137dd565b92505060018101905061380e565b5085935050505092915050565b6000610160830160008301518482036000860152613866828261318c565b915050602083015161387b602086018261376f565b50604083015161388e604086018261376f565b5060608301516138a1606086018261376f565b5060808301516138b4608086018261378a565b5060a08301516138c760a086018261376f565b5060c08301516138da60c086018261376f565b5060e083015184820360e08601526138f282826137ea565b91505061010083015161390961010086018261376f565b5061012083015161391e61012086018261376f565b5061014083015161393361014086018261311d565b508091505092915050565b600060208201905081810360008301526139588184613848565b905092915050565b600081519050919050565b600082825260208201905092915050565b6000819050602082019050919050565b6000613998838361318c565b905092915050565b6000602082019050919050565b60006139b882613960565b6139c2818561396b565b9350836020820285016139d48561397c565b8060005b85811015613a1057848403895281516139f1858261398c565b94506139fc836139a0565b925060208a019950506001810190506139d8565b50829750879550505050505092915050565b60006020820190508181036000830152613a3c81846139ad565b905092915050565b613a4d8161310b565b82525050565b6000602082019050613a686000830184613a44565b92915050565b600080600060608486031215613a8757613a8661330b565b5b6000613a95868287016134ba565b9350506020613aa6868287016134ba565b925050604084013567ffffffffffffffff811115613ac757613ac6613310565b5b613ad386828701613475565b9150509250925092565b600060208284031215613af357613af261330b565b5b600082013567ffffffffffffffff811115613b1157613b10613310565b5b613b1d84828501613475565b91505092915050565b600081519050919050565b6000613b3c82613b26565b613b46818561301c565b9350613b56818560208601613148565b613b5f8161317b565b840191505092915050565b613b738161377e565b82525050565b6000610140820190508181036000830152613b94818d613b31565b9050613ba3602083018c6132d7565b613bb0604083018b6132d7565b613bbd606083018a6132d7565b613bca6080830189613b6a565b613bd760a08301886132d7565b613be460c08301876132d7565b613bf160e08301866132d7565b613bff6101008301856132d7565b613c0d610120830184613a44565b9b9a5050505050505050505050565b7f4e487b7100000000000000000000000000000000000000000000000000000000600052602260045260246000fd5b60006002820490506001821680613c6357607f821691505b60208210811415613c7757613c76613c1c565b5b50919050565b7f4f776e61626c653a2063616c6c6572206973206e6f7420746865206f776e6572600082015250565b6000613cb360208361301c565b9150613cbe82613c7d565b602082019050919050565b60006020820190508181036000830152613ce281613ca6565b9050919050565b7f52657761726420706f6f6c2063616e2774206265207a65726f2e000000000000600082015250565b6000613d1f601a8361301c565b9150613d2a82613ce9565b602082019050919050565b60006020820190508181036000830152613d4e81613d12565b9050919050565b7f4665652063616e2774206265207a65726f2e0000000000000000000000000000600082015250565b6000613d8b60128361301c565b9150613d9682613d55565b602082019050919050565b60006020820190508181036000830152613dba81613d7e565b9050919050565b7f4e487b7100000000000000000000000000000000000000000000000000000000600052601160045260246000fd5b6000613dfb826132cd565b9150613e06836132cd565b9250827fffffffffffffffffffffffffffffffffffffffffffffffffffffffffffffffff03821115613e3b57613e3a613dc1565b5b828201905092915050565b7f416d6f756e742070616964206d75737420657175616c2073756d206f6620726560008201527f7761726420706f6f6c2066756e64696e6720616e64207365727669636520666560208201527f652e000000000000000000000000000000000000000000000000000000000000604082015250565b6000613ec860428361301c565b9150613ed382613e46565b606082019050919050565b60006020820190508181036000830152613ef781613ebb565b9050919050565b6000613f09826132cd565b9150613f14836132cd565b9250817fffffffffffffffffffffffffffffffffffffffffffffffffffffffffffffffff0483118215151615613f4d57613f4c613dc1565b5b828202905092915050565b7f466565206d75737420657175616c203525206f6620746865207265776172642060008201527f706f6f6c2e000000000000000000000000000000000000000000000000000000602082015250565b6000613fb460258361301c565b9150613fbf82613f58565b604082019050919050565b60006020820190508181036000830152613fe381613fa7565b9050919050565b7f5375727665792069642063616e277420626520626c616e6b2e00000000000000600082015250565b600061402060198361301c565b915061402b82613fea565b602082019050919050565b6000602082019050818103600083015261404f81614013565b9050919050565b7f537572766579207469746c652063616e277420626520626c616e6b0000000000600082015250565b600061408c601b8361301c565b915061409782614056565b602082019050919050565b600060208201905081810360008301526140bb8161407f565b9050919050565b7f526573706f6e7365207265776172642063616e2774206265206c61726765722060008201527f7468616e207468652072657761726420706f6f6c2e0000000000000000000000602082015250565b600061411e60358361301c565b9150614129826140c2565b604082019050919050565b6000602082019050818103600083015261414d81614111565b9050919050565b7f4e487b7100000000000000000000000000000000000000000000000000000000600052601260045260246000fd5b600061418e826132cd565b9150614199836132cd565b9250826141a9576141a8614154565b5b828206905092915050565b7f52657761726420706f6f6c20616d6f756e74206d75737420626520646976697360008201527f626c652062792074686520726573706f6e7365207265776172642e0000000000602082015250565b6000614210603b8361301c565b915061421b826141b4565b604082019050919050565b6000602082019050818103600083015261423f81614203565b9050919050565b600081905092915050565b600061425c8261312c565b6142668185614246565b9350614276818560208601613148565b80840191505092915050565b600061428e8284614251565b915081905092915050565b7f52657761726420706f6f6c2077697468207468652070726f766964656420696460008201527f20616c7265616479206578697374732e00000000000000000000000000000000602082015250565b60006142f560308361301c565b915061430082614299565b604082019050919050565b60006020820190508181036000830152614324816142e8565b9050919050565b6000614336826132cd565b91507fffffffffffffffffffffffffffffffffffffffffffffffffffffffffffffffff82141561436957614368613dc1565b5b600182019050919050565b60006060820190506143896000830186613a44565b818103602083015261439b8185613b31565b90506143aa60408301846132d7565b949350505050565b60006040820190506143c760008301856132d7565b6143d460208301846132d7565b9392505050565b7f4d7573742070726f7669646520612076616c696420757365722061646472657360008201527f732e000000000000000000000000000000000000000000000000000000000000602082015250565b600061443760228361301c565b9150614442826143db565b604082019050919050565b600060208201905081810360008301526144668161442a565b9050919050565b7f546865207265666572656e636564207375727665792072657761726420706f6f60008201527f6c20646f6573206e6f742065786973742e000000000000000000000000000000602082015250565b60006144c960318361301c565b91506144d48261446d565b604082019050919050565b600060208201905081810360008301526144f8816144bc565b9050919050565b7f546865207265666572656e636564207375727665792072657761726420706f6f60008201527f6c20697320616c726561647920636c6f7365642e000000000000000000000000602082015250565b600061455b60348361301c565b9150614566826144ff565b604082019050919050565b6000602082019050818103600083015261458a8161454e565b9050919050565b600061459c826132cd565b91506145a7836132cd565b9250828210156145ba576145b9613dc1565b5b828203905092915050565b7f4e487b7100000000000000000000000000000000000000000000000000000000600052603260045260246000fd5b6000819050919050565b600061461961461461460f846130eb565b6145f4565b6130eb565b9050919050565b600061462b826145fe565b9050919050565b600061463d82614620565b9050919050565b61464d81614632565b82525050565b60006060820190506146686000830186614644565b818103602083015261467a8185613b31565b905061468960408301846132d7565b949350505050565b7f436f6e7472616374732066756e64732061726520746f6f206c6f7720746f207760008201527f697468647261772066726f6d2e00000000000000000000000000000000000000602082015250565b60006146ed602d8361301c565b91506146f882614691565b604082019050919050565b6000602082019050818103600083015261471c816146e0565b9050919050565b7f5375727665792072657761726420706f6f6c20696e637265617365206d75737460008201527f206265206d6f7265207468616e207a65726f2e00000000000000000000000000602082015250565b600061477f60338361301c565b915061478a82614723565b604082019050919050565b600060208201905081810360008301526147ae81614772565b9050919050565b7f466565206d75737420657175616c203525206f662074686520616d6f756e742060008201527f706169642e000000000000000000000000000000000000000000000000000000602082015250565b600061481160258361301c565b915061481c826147b5565b604082019050919050565b6000602082019050818103600083015261484081614804565b9050919050565b7f5468652072657761726420706f6f6c20646f6573206e6f742065786973742e00600082015250565b600061487d601f8361301c565b915061488882614847565b602082019050919050565b600060208201905081810360008301526148ac81614870565b9050919050565b7f5468652072657761726420706f6f6c206d75737420626520616374697665207460008201527f6f20696e637265617365207468652066756e64732e0000000000000000000000602082015250565b600061490f60358361301c565b915061491a826148b3565b604082019050919050565b6000602082019050818103600083015261493e81614902565b9050919050565b600060808201905061495a6000830187613a44565b818103602083015261496c8186613b31565b905061497b60408301856132d7565b61498860608301846132d7565b95945050505050565b7f4f776e61626c653a206e6577206f776e657220697320746865207a65726f206160008201527f6464726573730000000000000000000000000000000000000000000000000000602082015250565b60006149ed60268361301c565b91506149f882614991565b604082019050919050565b60006020820190508181036000830152614a1c816149e0565b905091905056fea2646970667358221220902e6a75eb60d0e87daee27ddd50724947c70f9b0c6f9a42e5c5ca9b821ff19964736f6c634300080a0033",
  "immutableReferences": {},
  "source": "// SPDX-License-Identifier: MIT\r\npragma solidity ^0.8.0;\r\n\r\n\r\n// Remix IDE import statements\r\n// import \"https://github.com/OpenZeppelin/openzeppelin-contracts/contracts/utils/math/SafeMath.sol\";\r\n// import \"https://github.com/OpenZeppelin/openzeppelin-contracts/contracts/access/Ownable.sol\";\r\n\r\n// Standard import statements\r\nimport \"@openzeppelin/contracts/utils/math/SafeMath.sol\";\r\nimport \"@openzeppelin/contracts/access/Ownable.sol\";\r\n\r\ncontract ApeSurveyContract is Ownable {\r\n    using SafeMath for uint;\r\n\r\n    constructor() payable {\r\n    }\r\n\r\n    // Structs\r\n    struct RewardPool {\r\n        bytes title;\r\n        uint totalFunds;\r\n        uint totalEarned;\r\n        uint totalRewarded;\r\n        bool active;\r\n        uint responseReward;\r\n        uint responses;\r\n        address[] participants; //people who have earned but not claimed their reward.\r\n        uint createdAt;\r\n        uint closesAt;\r\n        address creator;\r\n    }\r\n\r\n    struct Reward {\r\n        address participant;\r\n        address creator;\r\n        bytes surveyID;\r\n    }\r\n\r\n    // State Variables\r\n    // mapping of user addresses to survey ids.\r\n    mapping(address => bytes[]) private userSurveyIdMap;\r\n    // userRewardPoolMap maps users to their reward pools keyed by the SM survey id.\r\n    mapping(address => mapping(bytes => RewardPool)) private userRewardPoolMap;\r\n    // mapping of users to their rewards.\r\n    mapping(address => Reward[]) private rewardMap;\r\n\r\n    // current metrics\r\n    uint private currentContractBalance;\r\n    uint private currentRewardPoolBalance;\r\n    uint private feeBalance;\r\n\r\n    // cummulative metrics\r\n    uint private totalRewardsPaidOut; // total amount of wei paid to participants.\r\n    uint private totalRewardPoolFunding; // total amount of wei to fund reward pools.\r\n    uint private totalResponses; // total number of responses.\r\n    uint private totalRewardPoolsFunded; // total number of reward pools funded.\r\n\r\n\r\n    event WithdrawlMade(uint256 _amount, uint ts);\r\n\r\n    // withdrawFees allows the contract owner to withdraw the service fee balance made.\r\n    function withdrawFees() public onlyOwner {\r\n        require(feeBalance > 0, \"Contracts funds are too low to withdraw from.\");\r\n        payable(owner()).transfer(feeBalance);\r\n\r\n        emit WithdrawlMade(feeBalance, block.timestamp);\r\n        feeBalance = 0;\r\n    }\r\n\r\n    // getFeeBalance returns the current balance of service fees accrued.\r\n    function getFeeBalance() public view onlyOwner returns(uint) {\r\n        return feeBalance;\r\n    }\r\n\r\n    // Getters\r\n    // get the list of survey pool ids for a particular user.\r\n    function getUserRewardPoolIds(address _user) public view onlyOwner returns (bytes[] memory) {\r\n        return userSurveyIdMap[_user];\r\n    }\r\n\r\n    // getRewardPoolIds gets the list of reward pool id's created by the sender.\r\n    function getRewardPoolIds() public view returns (bytes[] memory) {\r\n        return userSurveyIdMap[msg.sender];\r\n    }\r\n\r\n    // get the reward pool for any user.\r\n    function getUserRewardPool(address _user, string memory _poolId) public view onlyOwner returns(RewardPool memory) {\r\n        return userRewardPoolMap[_user][bytes(_poolId)];\r\n    }\r\n\r\n    // get the rewards for any user.\r\n    function getUserRewards(address _user) public view onlyOwner returns(Reward[] memory) {\r\n        return rewardMap[_user];\r\n    }\r\n\r\n    function getCurrentContractBalance() public view onlyOwner returns(uint) {\r\n        return currentContractBalance;\r\n    }\r\n\r\n    function getCurrentRewardPoolBalance() public view onlyOwner returns(uint) {\r\n        return currentRewardPoolBalance;\r\n    }\r\n\r\n    function getTotalRewardsPaidOut() public view onlyOwner returns(uint) {\r\n        return totalRewardsPaidOut;\r\n    }\r\n\r\n    function getTotalRewardPoolFunding() public view onlyOwner returns(uint) {\r\n        return totalRewardPoolFunding;\r\n    }\r\n\r\n    function getTotalResponses() public view onlyOwner returns(uint) {\r\n        return totalResponses;\r\n    }\r\n\r\n    function getTotalRewardPoolsFunded() public view onlyOwner returns(uint) {\r\n        return totalRewardPoolsFunded;\r\n    }\r\n\r\n    // Events\r\n    event SurveyFunded(address _user, string _poolId, uint _amount);\r\n    event RewardPoolClosed(address _user, string _poolId, uint _rewarded);\r\n    event RewardPoolIncreased(\r\n        address _user,\r\n        string _poolId,\r\n        uint amount,\r\n        uint _newTotal\r\n    );\r\n    event RewardEarned(address _participant, address _creator, string _poolId);\r\n    event RewardsPaidOut(\r\n        address _participant,\r\n        string _poolId,\r\n        uint _amount\r\n    );\r\n    event RewardFundsReturned(address _user, string _poolId, uint _amount);\r\n    event FeeRevenueEvent(uint _fee, uint ts);\r\n\r\n    // Functions\r\n\r\n    /**\r\n     * createRewardPool allows a user to create a reward pool to fund a survey.\r\n     * The function creates and saves the reward pool object, and sends the fee to the owner address.\r\n     */\r\n    function createRewardPool(\r\n        string memory _id,\r\n        string memory _title,\r\n        uint _amount,\r\n        uint _fee,\r\n        uint _responseReward\r\n    ) public payable {\r\n        bytes memory title = bytes(_title);\r\n        bytes memory poolId = bytes(_id);\r\n        require(_amount > 0, \"Reward pool can't be zero.\");\r\n        require(_fee > 0, \"Fee can't be zero.\");\r\n        require(_amount + _fee == msg.value, \"Amount paid must equal sum of reward pool funding and service fee.\");\r\n        require(_fee * 20 == _amount, \"Fee must equal 5% of the reward pool.\");\r\n        require(poolId.length  != 0, \"Survey id can't be blank.\");\r\n        require(title.length != 0, \"Survey title can't be blank\");\r\n        require(_responseReward <= _amount, \"Response reward can't be larger than the reward pool.\");\r\n        require(_amount % _responseReward == 0, \"Reward pool amount must be divisble by the response reward.\");\r\n\r\n        // reward pool with that id should not already exist.\r\n        RewardPool memory pool = userRewardPoolMap[msg.sender][poolId];\r\n        address zeroAddress;\r\n        require(pool.creator == zeroAddress, \"Reward pool with the provided id already exists.\");\r\n        \r\n        address[] memory _participants;\r\n        userRewardPoolMap[msg.sender][poolId] = RewardPool(\r\n            title,\r\n            _amount,\r\n            0,\r\n            0,\r\n            true,\r\n            _responseReward,\r\n            0,\r\n            _participants,\r\n            block.timestamp,\r\n            block.timestamp,\r\n            msg.sender\r\n        );\r\n\r\n        userSurveyIdMap[msg.sender].push(title);\r\n        currentContractBalance += msg.value;\r\n        currentRewardPoolBalance += _amount;\r\n        totalRewardPoolFunding += _amount;\r\n        totalRewardPoolsFunded++;\r\n        feeBalance += _fee;\r\n\r\n        emit SurveyFunded(msg.sender,string(poolId),_amount);\r\n        emit FeeRevenueEvent(_fee, block.timestamp);\r\n\r\n    }\r\n\r\n    /** getRewardPool allows someone to get a specific reward pool they have created.\r\n    */\r\n    function getRewardPool(string memory _poolId)\r\n        public\r\n        view\r\n        returns (\r\n            string memory,\r\n            uint,\r\n            uint,\r\n            uint,\r\n            bool,\r\n            uint,\r\n            uint,\r\n            uint,\r\n            uint,\r\n            address\r\n        )\r\n    {\r\n        bytes memory poolId = bytes(_poolId);\r\n        RewardPool memory pool = userRewardPoolMap[msg.sender][poolId];\r\n        address zeroAddress;\r\n        require(pool.creator != zeroAddress, \"The reward pool does not exist.\");\r\n        return (\r\n            string(pool.title),\r\n            pool.totalFunds,\r\n            pool.totalEarned,\r\n            pool.totalRewarded,\r\n            pool.active,\r\n            pool.responseReward,\r\n            pool.responses,\r\n            pool.createdAt,\r\n            pool.closesAt,\r\n            pool.creator\r\n        );\r\n    }\r\n\r\n    // rewardPoolIncrease allows a reward pool creator to increase the funds allocated to an existing reward pool.\r\n    function rewardPoolIncrease(uint _amount, uint _fee, string memory _poolId)\r\n        public\r\n        payable\r\n    {\r\n        require(_amount > 0, \"Survey reward pool increase must be more than zero.\");\r\n        require(_fee > 0, \"Fee can't be zero.\");\r\n        require(_amount + _fee == msg.value, \"Amount paid must equal sum of reward pool funding and service fee.\");\r\n        require(_fee * 20 == _amount, \"Fee must equal 5% of the amount paid.\");\r\n\r\n        RewardPool memory rewardPool = userRewardPoolMap[msg.sender][bytes(_poolId)];\r\n        // check that the reward pool exists.\r\n        address zeroAddress;\r\n        require(rewardPool.creator != zeroAddress, \"The reward pool does not exist.\");\r\n        require(rewardPool.active == true, \"The reward pool must be active to increase the funds.\");\r\n        rewardPool.totalFunds += _amount;\r\n        userRewardPoolMap[msg.sender][bytes(_poolId)] = rewardPool;\r\n        feeBalance += _fee;\r\n        totalRewardPoolFunding += _amount;\r\n        currentContractBalance += msg.value;\r\n        currentRewardPoolBalance += _amount;\r\n\r\n        emit RewardPoolIncreased(msg.sender, _poolId, _amount, rewardPool.totalFunds);\r\n        emit FeeRevenueEvent(_fee, block.timestamp);\r\n    }\r\n\r\n    // closeRewardPool triggers the event in where all earned funds are sent to the participant addresses,\r\n    // the unearned balance on the reward pool is returned to the creator, the and reward pool is set as inactive.\r\n    function closeRewardPool(address payable _user, string memory _poolId, address[] memory participants) public onlyOwner {\r\n        address zeroAddress;\r\n        require(_user != zeroAddress, \"Must provide a valid user address.\");\r\n        RewardPool memory pool = userRewardPoolMap[_user][bytes(_poolId)];\r\n        require(pool.creator != zeroAddress, \"The referenced survey reward pool does not exist.\");\r\n        require(pool.active == true || pool.closesAt < block.timestamp, \"The referenced survey reward pool is already closed.\");\r\n\r\n        uint totalPayout = pool.responseReward * participants.length;\r\n        uint totalReturn = pool.totalFunds - totalPayout;\r\n\r\n        totalRewardsPaidOut += totalPayout;\r\n        totalResponses += participants.length;\r\n        currentContractBalance -= pool.totalFunds;\r\n        currentRewardPoolBalance -= pool.totalFunds;\r\n\r\n        // return unearned pool funds to creator\r\n        payable(_user).transfer(totalReturn);\r\n\r\n        // for each address in participants pay them the response reward\r\n        for(uint i=0; i < participants.length; i++) {\r\n            address participant = participants[i];\r\n            payable(participant).transfer(pool.responseReward);\r\n\r\n            emit RewardsPaidOut(participant, _poolId, pool.responseReward);\r\n        }\r\n\r\n        pool.active = false;\r\n\r\n        emit RewardPoolClosed(_user, _poolId, participants.length);\r\n        emit RewardFundsReturned(_user, _poolId, totalReturn);\r\n\r\n    }\r\n\r\n    function getRewards() public view returns(Reward[] memory) {\r\n        return rewardMap[msg.sender];\r\n    }\r\n\r\n    fallback() external payable {\r\n        require(msg.sender == owner(), \"Only the owner can send funds via the fallback function.\");\r\n    }\r\n\r\n    receive() external payable {\r\n        require(msg.sender == owner(), \"Only the owner can send funds via the fallback function.\");\r\n    }\r\n\r\n}\r\n",
  "sourcePath": "C:\\Users\\brand\\Documents\\Projects\\ApeSurvey\\ape-survey\\contracts\\ApeSurveyContract.sol",
  "compiler": {
    "name": "solc",
    "version": "0.8.10+commit.fc410830.Emscripten.clang"
  },
  "schemaVersion": "3.4.4",
  "updatedAt": "2021-12-19T15:25:05.060Z",
  "networkType": "ethereum",
  "devdoc": {
    "kind": "dev",
    "methods": {
      "owner()": {
        "details": "Returns the address of the current owner."
      },
      "renounceOwnership()": {
        "details": "Leaves the contract without owner. It will not be possible to call `onlyOwner` functions anymore. Can only be called by the current owner. NOTE: Renouncing ownership will leave the contract without an owner, thereby removing any functionality that is only available to the owner."
      },
      "transferOwnership(address)": {
        "details": "Transfers ownership of the contract to a new account (`newOwner`). Can only be called by the current owner."
      }
    },
    "version": 1
  },
  "userdoc": {
    "kind": "user",
    "methods": {
      "createRewardPool(string,string,uint256,uint256,uint256)": {
        "notice": "createRewardPool allows a user to create a reward pool to fund a survey. The function creates and saves the reward pool object, and sends the fee to the owner address."
      },
      "getRewardPool(string)": {
        "notice": "getRewardPool allows someone to get a specific reward pool they have created."
      }
    },
    "version": 1
  }
}