{
  "contractName": "ApeSurveyContract",
  "abi": [
    {
      "inputs": [],
      "stateMutability": "payable",
      "type": "constructor",
      "payable": true
    },
    {
      "anonymous": false,
      "inputs": [
        {
          "indexed": false,
          "internalType": "uint256",
          "name": "_fee",
          "type": "uint256"
        },
        {
          "indexed": false,
          "internalType": "uint256",
          "name": "ts",
          "type": "uint256"
        }
      ],
      "name": "FeeRevenueEvent",
      "type": "event"
    },
    {
      "anonymous": false,
      "inputs": [
        {
          "indexed": true,
          "internalType": "address",
          "name": "previousOwner",
          "type": "address"
        },
        {
          "indexed": true,
          "internalType": "address",
          "name": "newOwner",
          "type": "address"
        }
      ],
      "name": "OwnershipTransferred",
      "type": "event"
    },
    {
      "anonymous": false,
      "inputs": [
        {
          "indexed": false,
          "internalType": "address",
          "name": "_user",
          "type": "address"
        },
        {
          "indexed": false,
          "internalType": "string",
          "name": "_poolId",
          "type": "string"
        },
        {
          "indexed": false,
          "internalType": "uint256",
          "name": "_amount",
          "type": "uint256"
        }
      ],
      "name": "RewardFundsReturned",
      "type": "event"
    },
    {
      "anonymous": false,
      "inputs": [
        {
          "indexed": false,
          "internalType": "address",
          "name": "_participant",
          "type": "address"
        },
        {
          "indexed": false,
          "internalType": "address",
          "name": "_creator",
          "type": "address"
        },
        {
          "indexed": false,
          "internalType": "string",
          "name": "_poolId",
          "type": "string"
        },
        {
          "indexed": false,
          "internalType": "uint256",
          "name": "_amount",
          "type": "uint256"
        }
      ],
      "name": "RewardPaidOut",
      "type": "event"
    },
    {
      "anonymous": false,
      "inputs": [
        {
          "indexed": false,
          "internalType": "address",
          "name": "_user",
          "type": "address"
        },
        {
          "indexed": false,
          "internalType": "string",
          "name": "_poolId",
          "type": "string"
        },
        {
          "indexed": false,
          "internalType": "uint256",
          "name": "_rewarded",
          "type": "uint256"
        }
      ],
      "name": "RewardPoolClosed",
      "type": "event"
    },
    {
      "anonymous": false,
      "inputs": [
        {
          "indexed": false,
          "internalType": "address",
          "name": "_user",
          "type": "address"
        },
        {
          "indexed": false,
          "internalType": "string",
          "name": "_poolId",
          "type": "string"
        },
        {
          "indexed": false,
          "internalType": "uint256",
          "name": "amount",
          "type": "uint256"
        },
        {
          "indexed": false,
          "internalType": "uint256",
          "name": "_newTotal",
          "type": "uint256"
        }
      ],
      "name": "RewardPoolIncreased",
      "type": "event"
    },
    {
      "anonymous": false,
      "inputs": [
        {
          "indexed": false,
          "internalType": "address",
          "name": "_user",
          "type": "address"
        },
        {
          "indexed": false,
          "internalType": "string",
          "name": "_poolId",
          "type": "string"
        },
        {
          "indexed": false,
          "internalType": "uint256",
          "name": "_amount",
          "type": "uint256"
        }
      ],
      "name": "SurveyFunded",
      "type": "event"
    },
    {
      "stateMutability": "payable",
      "type": "fallback",
      "payable": true
    },
    {
      "inputs": [],
      "name": "owner",
      "outputs": [
        {
          "internalType": "address",
          "name": "",
          "type": "address"
        }
      ],
      "stateMutability": "view",
      "type": "function",
      "constant": true
    },
    {
      "inputs": [],
      "name": "renounceOwnership",
      "outputs": [],
      "stateMutability": "nonpayable",
      "type": "function"
    },
    {
      "inputs": [
        {
          "internalType": "address",
          "name": "newOwner",
          "type": "address"
        }
      ],
      "name": "transferOwnership",
      "outputs": [],
      "stateMutability": "nonpayable",
      "type": "function"
    },
    {
      "stateMutability": "payable",
      "type": "receive",
      "payable": true
    },
    {
      "inputs": [],
      "name": "withdrawFees",
      "outputs": [],
      "stateMutability": "nonpayable",
      "type": "function"
    },
    {
      "inputs": [],
      "name": "getFeeBalance",
      "outputs": [
        {
          "internalType": "uint256",
          "name": "",
          "type": "uint256"
        }
      ],
      "stateMutability": "view",
      "type": "function",
      "constant": true
    },
    {
      "inputs": [
        {
          "internalType": "address",
          "name": "_user",
          "type": "address"
        }
      ],
      "name": "getUserRewardPoolIds",
      "outputs": [
        {
          "internalType": "bytes[]",
          "name": "",
          "type": "bytes[]"
        }
      ],
      "stateMutability": "view",
      "type": "function",
      "constant": true
    },
    {
      "inputs": [],
      "name": "getRewardPoolIds",
      "outputs": [
        {
          "internalType": "bytes[]",
          "name": "",
          "type": "bytes[]"
        }
      ],
      "stateMutability": "view",
      "type": "function",
      "constant": true
    },
    {
      "inputs": [
        {
          "internalType": "address",
          "name": "_user",
          "type": "address"
        },
        {
          "internalType": "string",
          "name": "_poolId",
          "type": "string"
        }
      ],
      "name": "getUserRewardPool",
      "outputs": [
        {
          "internalType": "string",
          "name": "",
          "type": "string"
        },
        {
          "internalType": "uint256",
          "name": "",
          "type": "uint256"
        },
        {
          "internalType": "uint256",
          "name": "",
          "type": "uint256"
        },
        {
          "internalType": "bool",
          "name": "",
          "type": "bool"
        },
        {
          "internalType": "uint256",
          "name": "",
          "type": "uint256"
        },
        {
          "internalType": "uint256",
          "name": "",
          "type": "uint256"
        },
        {
          "internalType": "uint256",
          "name": "",
          "type": "uint256"
        },
        {
          "internalType": "address",
          "name": "",
          "type": "address"
        }
      ],
      "stateMutability": "view",
      "type": "function",
      "constant": true
    },
    {
      "inputs": [],
      "name": "getCurrentRewardPoolBalance",
      "outputs": [
        {
          "internalType": "uint256",
          "name": "",
          "type": "uint256"
        }
      ],
      "stateMutability": "view",
      "type": "function",
      "constant": true
    },
    {
      "inputs": [],
      "name": "getTotalRewardsPaidOut",
      "outputs": [
        {
          "internalType": "uint256",
          "name": "",
          "type": "uint256"
        }
      ],
      "stateMutability": "view",
      "type": "function",
      "constant": true
    },
    {
      "inputs": [],
      "name": "getTotalRewardPoolFunding",
      "outputs": [
        {
          "internalType": "uint256",
          "name": "",
          "type": "uint256"
        }
      ],
      "stateMutability": "view",
      "type": "function",
      "constant": true
    },
    {
      "inputs": [],
      "name": "getTotalResponses",
      "outputs": [
        {
          "internalType": "uint256",
          "name": "",
          "type": "uint256"
        }
      ],
      "stateMutability": "view",
      "type": "function",
      "constant": true
    },
    {
      "inputs": [],
      "name": "getTotalRewardPoolsFunded",
      "outputs": [
        {
          "internalType": "uint256",
          "name": "",
          "type": "uint256"
        }
      ],
      "stateMutability": "view",
      "type": "function",
      "constant": true
    },
    {
      "inputs": [
        {
          "internalType": "string",
          "name": "_id",
          "type": "string"
        },
        {
          "internalType": "string",
          "name": "_title",
          "type": "string"
        },
        {
          "internalType": "uint256",
          "name": "_amount",
          "type": "uint256"
        },
        {
          "internalType": "uint256",
          "name": "_fee",
          "type": "uint256"
        },
        {
          "internalType": "uint256",
          "name": "_responseReward",
          "type": "uint256"
        }
      ],
      "name": "createRewardPool",
      "outputs": [],
      "stateMutability": "payable",
      "type": "function",
      "payable": true
    },
    {
      "inputs": [
        {
          "internalType": "string",
          "name": "_poolId",
          "type": "string"
        }
      ],
      "name": "getRewardPool",
      "outputs": [
        {
          "internalType": "string",
          "name": "",
          "type": "string"
        },
        {
          "internalType": "uint256",
          "name": "",
          "type": "uint256"
        },
        {
          "internalType": "uint256",
          "name": "",
          "type": "uint256"
        },
        {
          "internalType": "bool",
          "name": "",
          "type": "bool"
        },
        {
          "internalType": "uint256",
          "name": "",
          "type": "uint256"
        },
        {
          "internalType": "uint256",
          "name": "",
          "type": "uint256"
        },
        {
          "internalType": "uint256",
          "name": "",
          "type": "uint256"
        },
        {
          "internalType": "address",
          "name": "",
          "type": "address"
        }
      ],
      "stateMutability": "view",
      "type": "function",
      "constant": true
    },
    {
      "inputs": [
        {
          "internalType": "uint256",
          "name": "_amount",
          "type": "uint256"
        },
        {
          "internalType": "uint256",
          "name": "_fee",
          "type": "uint256"
        },
        {
          "internalType": "string",
          "name": "_poolId",
          "type": "string"
        }
      ],
      "name": "rewardPoolIncrease",
      "outputs": [],
      "stateMutability": "payable",
      "type": "function",
      "payable": true
    },
    {
      "inputs": [
        {
          "internalType": "address payable",
          "name": "_creator",
          "type": "address"
        },
        {
          "internalType": "string",
          "name": "_poolId",
          "type": "string"
        },
        {
          "internalType": "address[]",
          "name": "participants",
          "type": "address[]"
        }
      ],
      "name": "closeRewardPool",
      "outputs": [],
      "stateMutability": "nonpayable",
      "type": "function"
    }
  ],
  "bytecode": "0x608060405262000024620000186200002a60201b60201c565b6200003260201b60201c565b620000f6565b600033905090565b60008060009054906101000a900473ffffffffffffffffffffffffffffffffffffffff169050816000806101000a81548173ffffffffffffffffffffffffffffffffffffffff021916908373ffffffffffffffffffffffffffffffffffffffff1602179055508173ffffffffffffffffffffffffffffffffffffffff168173ffffffffffffffffffffffffffffffffffffffff167f8be0079c531659141344cd1fd0a4f28419497f9722a3daafe3b4186f6b6457e060405160405180910390a35050565b613f1d80620001066000396000f3fe6080604052600436106101025760003560e01c80639f8069a411610095578063d4c30ceb11610064578063d4c30ceb146103f5578063f2fde38b14610420578063f75886ce14610449578063f8d42c1514610474578063f9f55ee61461049f5761017e565b80639f8069a41461033f578063b05784fa1461036a578063c229f19014610395578063d105f715146103b15761017e565b80636ae6fcac116100d15780636ae6fcac1461027c5780636e630bcf146102c0578063715018a6146102fd5780638da5cb5b146103145761017e565b8063058d417b146101f5578063219f07ad146102205780632960a19a1461023c578063476343ee146102655761017e565b3661017e5761010f6104ca565b73ffffffffffffffffffffffffffffffffffffffff163373ffffffffffffffffffffffffffffffffffffffff161461017c576040517f08c379a000000000000000000000000000000000000000000000000000000000815260040161017390612739565b60405180910390fd5b005b6101866104ca565b73ffffffffffffffffffffffffffffffffffffffff163373ffffffffffffffffffffffffffffffffffffffff16146101f3576040517f08c379a00000000000000000000000000000000000000000000000000000000081526004016101ea90612739565b60405180910390fd5b005b34801561020157600080fd5b5061020a6104f3565b6040516102179190612772565b60405180910390f35b61023a60048036038101906102359190612913565b610579565b005b34801561024857600080fd5b50610263600480360381019061025e9190612b2a565b610b04565b005b34801561027157600080fd5b5061027a61117b565b005b34801561028857600080fd5b506102a3600480360381019061029e9190612bb5565b611296565b6040516102b7989796959493929190612cb2565b60405180910390f35b3480156102cc57600080fd5b506102e760048036038101906102e29190612d37565b61157b565b6040516102f49190612e7b565b60405180910390f35b34801561030957600080fd5b5061031261170f565b005b34801561032057600080fd5b506103296104ca565b6040516103369190612e9d565b60405180910390f35b34801561034b57600080fd5b50610354611797565b6040516103619190612772565b60405180910390f35b34801561037657600080fd5b5061037f61181d565b60405161038c9190612e7b565b60405180910390f35b6103af60048036038101906103aa9190612eb8565b611933565b005b3480156103bd57600080fd5b506103d860048036038101906103d39190612f27565b611d1c565b6040516103ec989796959493929190612cb2565b60405180910390f35b34801561040157600080fd5b5061040a611df0565b6040516104179190612772565b60405180910390f35b34801561042c57600080fd5b5061044760048036038101906104429190612d37565b611e76565b005b34801561045557600080fd5b5061045e611f6e565b60405161046b9190612772565b60405180910390f35b34801561048057600080fd5b50610489611ff4565b6040516104969190612772565b60405180910390f35b3480156104ab57600080fd5b506104b461207a565b6040516104c19190612772565b60405180910390f35b60008060009054906101000a900473ffffffffffffffffffffffffffffffffffffffff16905090565b60006104fd612100565b73ffffffffffffffffffffffffffffffffffffffff1661051b6104ca565b73ffffffffffffffffffffffffffffffffffffffff1614610571576040517f08c379a000000000000000000000000000000000000000000000000000000000815260040161056890612fbc565b60405180910390fd5b600954905090565b60008490506000869050600085116105c6576040517f08c379a00000000000000000000000000000000000000000000000000000000081526004016105bd90613028565b60405180910390fd5b60008411610609576040517f08c379a000000000000000000000000000000000000000000000000000000000815260040161060090613094565b60405180910390fd5b34848661061691906130e3565b14610656576040517f08c379a000000000000000000000000000000000000000000000000000000000815260040161064d906131d1565b60405180910390fd5b8460148561066491906131f1565b146106a4576040517f08c379a000000000000000000000000000000000000000000000000000000000815260040161069b906132bd565b60405180910390fd5b6000815114156106e9576040517f08c379a00000000000000000000000000000000000000000000000000000000081526004016106e090613329565b60405180910390fd5b60008251141561072e576040517f08c379a000000000000000000000000000000000000000000000000000000000815260040161072590613395565b60405180910390fd5b84831115610771576040517f08c379a000000000000000000000000000000000000000000000000000000000815260040161076890613427565b60405180910390fd5b6000838661077f9190613476565b146107bf576040517f08c379a00000000000000000000000000000000000000000000000000000000081526004016107b690613519565b60405180910390fd5b60006107cb3389612108565b905060008073ffffffffffffffffffffffffffffffffffffffff168260e0015173ffffffffffffffffffffffffffffffffffffffff1614610841576040517f08c379a0000000000000000000000000000000000000000000000000000000008152600401610838906135ab565b60405180910390fd5b604051806101000160405280858152602001888152602001600081526020016001151581526020018681526020014281526020014281526020013373ffffffffffffffffffffffffffffffffffffffff16815250600260003373ffffffffffffffffffffffffffffffffffffffff1673ffffffffffffffffffffffffffffffffffffffff168152602001908152602001600020846040516108e29190613607565b9081526020016040518091039020600082015181600001908051906020019061090c9291906125b6565b50602082015181600101556040820151816002015560608201518160030160006101000a81548160ff0219169083151502179055506080820151816004015560a0820151816005015560c0820151816006015560e08201518160070160006101000a81548173ffffffffffffffffffffffffffffffffffffffff021916908373ffffffffffffffffffffffffffffffffffffffff160217905550905050600160003373ffffffffffffffffffffffffffffffffffffffff1673ffffffffffffffffffffffffffffffffffffffff16815260200190815260200160002084908060018154018082558091505060019003906000526020600020016000909190919091509080519060200190610a219291906125b6565b508660046000828254610a3491906130e3565b925050819055508660076000828254610a4d91906130e3565b9250508190555060096000815480929190610a679061361e565b91905055508560056000828254610a7e91906130e3565b925050819055507f09d572a5aefe644af47fbc70d53c8abec273658b218e1b70215c855dce846d6e338489604051610ab893929190613667565b60405180910390a17f8056052aa2662ff6261ec500d371c052d9e99a7fdbb9cab8746631d59bbc61118642604051610af19291906136a5565b60405180910390a1505050505050505050565b610b0c612100565b73ffffffffffffffffffffffffffffffffffffffff16610b2a6104ca565b73ffffffffffffffffffffffffffffffffffffffff1614610b80576040517f08c379a0000000000000000000000000000000000000000000000000000000008152600401610b7790612fbc565b60405180910390fd5b60008073ffffffffffffffffffffffffffffffffffffffff168473ffffffffffffffffffffffffffffffffffffffff161415610bf1576040517f08c379a0000000000000000000000000000000000000000000000000000000008152600401610be890613740565b60405180910390fd5b6000610bfd8585612108565b90508173ffffffffffffffffffffffffffffffffffffffff168160e0015173ffffffffffffffffffffffffffffffffffffffff161415610c72576040517f08c379a0000000000000000000000000000000000000000000000000000000008152600401610c69906137d2565b60405180910390fd5b60011515816060015115151480610c8c5750428160c00151105b610ccb576040517f08c379a0000000000000000000000000000000000000000000000000000000008152600401610cc290613864565b60405180910390fd5b600083518260800151610cde91906131f1565b90506000818360200151610cf29190613884565b90508160066000828254610d0691906130e3565b92505081905550845160086000828254610d2091906130e3565b92505081905550826020015160046000828254610d3d9190613884565b925050819055508673ffffffffffffffffffffffffffffffffffffffff166108fc829081150290604051600060405180830381858888f19350505050158015610d8a573d6000803e3d6000fd5b5060005b8551811015610fca576000868281518110610dac57610dab6138b8565b5b602002602001015190506000610e2582600360008d73ffffffffffffffffffffffffffffffffffffffff1673ffffffffffffffffffffffffffffffffffffffff1681526020019081526020016000208b604051610e099190613607565b90815260200160405180910390206122ba90919063ffffffff16565b90506000151581151514610e6e576040517f08c379a0000000000000000000000000000000000000000000000000000000008152600401610e6590613959565b60405180910390fd5b8173ffffffffffffffffffffffffffffffffffffffff166108fc87608001519081150290604051600060405180830381858888f19350505050158015610eb8573d6000803e3d6000fd5b506000610f2a8384600360008f73ffffffffffffffffffffffffffffffffffffffff1673ffffffffffffffffffffffffffffffffffffffff1681526020019081526020016000208d604051610f0d9190613607565b908152602001604051809103902061230b9092919063ffffffff16565b90506000151581151514610f73576040517f08c379a0000000000000000000000000000000000000000000000000000000008152600401610f6a906139eb565b60405180910390fd5b7fa752214b7923a4e9ba3dc7c0a034e55683dfa3b967132dd12dd515820890469f838c8c8a60800151604051610fac9493929190613a6a565b60405180910390a15050508080610fc29061361e565b915050610d8e565b5060008360600190151590811515815250508183604001818152505082600260008973ffffffffffffffffffffffffffffffffffffffff1673ffffffffffffffffffffffffffffffffffffffff168152602001908152602001600020876040516110349190613607565b9081526020016040518091039020600082015181600001908051906020019061105e9291906125b6565b50602082015181600101556040820151816002015560608201518160030160006101000a81548160ff0219169083151502179055506080820151816004015560a0820151816005015560c0820151816006015560e08201518160070160006101000a81548173ffffffffffffffffffffffffffffffffffffffff021916908373ffffffffffffffffffffffffffffffffffffffff1602179055509050507f16be4bc3064d0caca16b4339db3e6e33e5b8179fa4a62a6edff6b66fc186432e8787875160405161112f93929190613ab6565b60405180910390a17fa436671c7bfefbda979312e5a5c6e180c9f2a96145e703d702116f59df41445d87878360405161116a93929190613ab6565b60405180910390a150505050505050565b611183612100565b73ffffffffffffffffffffffffffffffffffffffff166111a16104ca565b73ffffffffffffffffffffffffffffffffffffffff16146111f7576040517f08c379a00000000000000000000000000000000000000000000000000000000081526004016111ee90612fbc565b60405180910390fd5b60006005541161123c576040517f08c379a000000000000000000000000000000000000000000000000000000000815260040161123390613b66565b60405180910390fd5b6112446104ca565b73ffffffffffffffffffffffffffffffffffffffff166108fc6005549081150290604051600060405180830381858888f1935050505015801561128b573d6000803e3d6000fd5b506000600581905550565b606060008060008060008060006112ab612100565b73ffffffffffffffffffffffffffffffffffffffff166112c96104ca565b73ffffffffffffffffffffffffffffffffffffffff161461131f576040517f08c379a000000000000000000000000000000000000000000000000000000000815260040161131690612fbc565b60405180910390fd5b6000600260008c73ffffffffffffffffffffffffffffffffffffffff1673ffffffffffffffffffffffffffffffffffffffff1681526020019081526020016000208a60405161136e9190613607565b90815260200160405180910390206040518061010001604052908160008201805461139890613bb5565b80601f01602080910402602001604051908101604052809291908181526020018280546113c490613bb5565b80156114115780601f106113e657610100808354040283529160200191611411565b820191906000526020600020905b8154815290600101906020018083116113f457829003601f168201915b5050505050815260200160018201548152602001600282015481526020016003820160009054906101000a900460ff161515151581526020016004820154815260200160058201548152602001600682015481526020016007820160009054906101000a900473ffffffffffffffffffffffffffffffffffffffff1673ffffffffffffffffffffffffffffffffffffffff1673ffffffffffffffffffffffffffffffffffffffff1681525050905060008073ffffffffffffffffffffffffffffffffffffffff168260e0015173ffffffffffffffffffffffffffffffffffffffff161415611534576040517f08c379a000000000000000000000000000000000000000000000000000000000815260040161152b90613c33565b60405180910390fd5b816000015182602001518360400151846060015185608001518660a001518760c001518860e001519950995099509950995099509950995050509295985092959890939650565b6060611585612100565b73ffffffffffffffffffffffffffffffffffffffff166115a36104ca565b73ffffffffffffffffffffffffffffffffffffffff16146115f9576040517f08c379a00000000000000000000000000000000000000000000000000000000081526004016115f090612fbc565b60405180910390fd5b600160008373ffffffffffffffffffffffffffffffffffffffff1673ffffffffffffffffffffffffffffffffffffffff168152602001908152602001600020805480602002602001604051908101604052809291908181526020016000905b8282101561170457838290600052602060002001805461167790613bb5565b80601f01602080910402602001604051908101604052809291908181526020018280546116a390613bb5565b80156116f05780601f106116c5576101008083540402835291602001916116f0565b820191906000526020600020905b8154815290600101906020018083116116d357829003601f168201915b505050505081526020019060010190611658565b505050509050919050565b611717612100565b73ffffffffffffffffffffffffffffffffffffffff166117356104ca565b73ffffffffffffffffffffffffffffffffffffffff161461178b576040517f08c379a000000000000000000000000000000000000000000000000000000000815260040161178290612fbc565b60405180910390fd5b61179560006124f2565b565b60006117a1612100565b73ffffffffffffffffffffffffffffffffffffffff166117bf6104ca565b73ffffffffffffffffffffffffffffffffffffffff1614611815576040517f08c379a000000000000000000000000000000000000000000000000000000000815260040161180c90612fbc565b60405180910390fd5b600454905090565b6060600160003373ffffffffffffffffffffffffffffffffffffffff1673ffffffffffffffffffffffffffffffffffffffff168152602001908152602001600020805480602002602001604051908101604052809291908181526020016000905b8282101561192a57838290600052602060002001805461189d90613bb5565b80601f01602080910402602001604051908101604052809291908181526020018280546118c990613bb5565b80156119165780601f106118eb57610100808354040283529160200191611916565b820191906000526020600020905b8154815290600101906020018083116118f957829003601f168201915b50505050508152602001906001019061187e565b50505050905090565b60008311611976576040517f08c379a000000000000000000000000000000000000000000000000000000000815260040161196d90613cc5565b60405180910390fd5b600082116119b9576040517f08c379a00000000000000000000000000000000000000000000000000000000081526004016119b090613094565b60405180910390fd5b3482846119c691906130e3565b14611a06576040517f08c379a00000000000000000000000000000000000000000000000000000000081526004016119fd906131d1565b60405180910390fd5b82601483611a1491906131f1565b14611a54576040517f08c379a0000000000000000000000000000000000000000000000000000000008152600401611a4b90613d57565b60405180910390fd5b6000611a603383612108565b905060008073ffffffffffffffffffffffffffffffffffffffff168260e0015173ffffffffffffffffffffffffffffffffffffffff161415611ad7576040517f08c379a0000000000000000000000000000000000000000000000000000000008152600401611ace90613c33565b60405180910390fd5b600115158260600151151514611b22576040517f08c379a0000000000000000000000000000000000000000000000000000000008152600401611b1990613de9565b60405180910390fd5b8482602001818151611b3491906130e3565b9150818152505081600260003373ffffffffffffffffffffffffffffffffffffffff1673ffffffffffffffffffffffffffffffffffffffff16815260200190815260200160002084604051611b899190613607565b90815260200160405180910390206000820151816000019080519060200190611bb39291906125b6565b50602082015181600101556040820151816002015560608201518160030160006101000a81548160ff0219169083151502179055506080820151816004015560a0820151816005015560c0820151816006015560e08201518160070160006101000a81548173ffffffffffffffffffffffffffffffffffffffff021916908373ffffffffffffffffffffffffffffffffffffffff1602179055509050508360056000828254611c6291906130e3565b925050819055508460076000828254611c7b91906130e3565b925050819055508460046000828254611c9491906130e3565b925050819055507f3a9f2dd046341dbf48e193a8d64210036389758bacaf4956775e09e0eb4e43433384878560200151604051611cd49493929190613e09565b60405180910390a17f8056052aa2662ff6261ec500d371c052d9e99a7fdbb9cab8746631d59bbc61118442604051611d0d9291906136a5565b60405180910390a15050505050565b6060600080600080600080600080611d34338b612108565b905060008073ffffffffffffffffffffffffffffffffffffffff168260e0015173ffffffffffffffffffffffffffffffffffffffff161415611dab576040517f08c379a0000000000000000000000000000000000000000000000000000000008152600401611da290613c33565b60405180910390fd5b816000015182602001518360400151846060015185608001518660a001518760c001518860e00151995099509950995099509950995099505050919395975091939597565b6000611dfa612100565b73ffffffffffffffffffffffffffffffffffffffff16611e186104ca565b73ffffffffffffffffffffffffffffffffffffffff1614611e6e576040517f08c379a0000000000000000000000000000000000000000000000000000000008152600401611e6590612fbc565b60405180910390fd5b600554905090565b611e7e612100565b73ffffffffffffffffffffffffffffffffffffffff16611e9c6104ca565b73ffffffffffffffffffffffffffffffffffffffff1614611ef2576040517f08c379a0000000000000000000000000000000000000000000000000000000008152600401611ee990612fbc565b60405180910390fd5b600073ffffffffffffffffffffffffffffffffffffffff168173ffffffffffffffffffffffffffffffffffffffff161415611f62576040517f08c379a0000000000000000000000000000000000000000000000000000000008152600401611f5990613ec7565b60405180910390fd5b611f6b816124f2565b50565b6000611f78612100565b73ffffffffffffffffffffffffffffffffffffffff16611f966104ca565b73ffffffffffffffffffffffffffffffffffffffff1614611fec576040517f08c379a0000000000000000000000000000000000000000000000000000000008152600401611fe390612fbc565b60405180910390fd5b600854905090565b6000611ffe612100565b73ffffffffffffffffffffffffffffffffffffffff1661201c6104ca565b73ffffffffffffffffffffffffffffffffffffffff1614612072576040517f08c379a000000000000000000000000000000000000000000000000000000000815260040161206990612fbc565b60405180910390fd5b600754905090565b6000612084612100565b73ffffffffffffffffffffffffffffffffffffffff166120a26104ca565b73ffffffffffffffffffffffffffffffffffffffff16146120f8576040517f08c379a00000000000000000000000000000000000000000000000000000000081526004016120ef90612fbc565b60405180910390fd5b600654905090565b600033905090565b61211061263c565b6000600260008573ffffffffffffffffffffffffffffffffffffffff1673ffffffffffffffffffffffffffffffffffffffff1681526020019081526020016000208360405161215f9190613607565b90815260200160405180910390206040518061010001604052908160008201805461218990613bb5565b80601f01602080910402602001604051908101604052809291908181526020018280546121b590613bb5565b80156122025780601f106121d757610100808354040283529160200191612202565b820191906000526020600020905b8154815290600101906020018083116121e557829003601f168201915b5050505050815260200160018201548152602001600282015481526020016003820160009054906101000a900460ff161515151581526020016004820154815260200160058201548152602001600682015481526020016007820160009054906101000a900473ffffffffffffffffffffffffffffffffffffffff1673ffffffffffffffffffffffffffffffffffffffff1673ffffffffffffffffffffffffffffffffffffffff168152505090508091505092915050565b6000808360000160008473ffffffffffffffffffffffffffffffffffffffff1673ffffffffffffffffffffffffffffffffffffffff1681526020019081526020016000206000015411905092915050565b6000808460000160008573ffffffffffffffffffffffffffffffffffffffff1673ffffffffffffffffffffffffffffffffffffffff168152602001908152602001600020600001549050828560000160008673ffffffffffffffffffffffffffffffffffffffff1673ffffffffffffffffffffffffffffffffffffffff16815260200190815260200160002060010160006101000a81548173ffffffffffffffffffffffffffffffffffffffff021916908373ffffffffffffffffffffffffffffffffffffffff16021790555060008111156123eb5760019150506124eb565b846001018054905090508460010160018160018154018082558091505003906000526020600020505060018161242191906130e3565b8560000160008673ffffffffffffffffffffffffffffffffffffffff1673ffffffffffffffffffffffffffffffffffffffff16815260200190815260200160002060000181905550838560010182815481106124805761247f6138b8565b5b9060005260206000200160000160006101000a81548173ffffffffffffffffffffffffffffffffffffffff021916908373ffffffffffffffffffffffffffffffffffffffff1602179055508460020160008154809291906124e09061361e565b919050555060009150505b9392505050565b60008060009054906101000a900473ffffffffffffffffffffffffffffffffffffffff169050816000806101000a81548173ffffffffffffffffffffffffffffffffffffffff021916908373ffffffffffffffffffffffffffffffffffffffff1602179055508173ffffffffffffffffffffffffffffffffffffffff168173ffffffffffffffffffffffffffffffffffffffff167f8be0079c531659141344cd1fd0a4f28419497f9722a3daafe3b4186f6b6457e060405160405180910390a35050565b8280546125c290613bb5565b90600052602060002090601f0160209004810192826125e4576000855561262b565b82601f106125fd57805160ff191683800117855561262b565b8280016001018555821561262b579182015b8281111561262a57825182559160200191906001019061260f565b5b5090506126389190612699565b5090565b604051806101000160405280606081526020016000815260200160008152602001600015158152602001600081526020016000815260200160008152602001600073ffffffffffffffffffffffffffffffffffffffff1681525090565b5b808211156126b257600081600090555060010161269a565b5090565b600082825260208201905092915050565b7f4f6e6c7920746865206f776e65722063616e2073656e642066756e647320766960008201527f61207468652066616c6c6261636b2066756e6374696f6e2e0000000000000000602082015250565b60006127236038836126b6565b915061272e826126c7565b604082019050919050565b6000602082019050818103600083015261275281612716565b9050919050565b6000819050919050565b61276c81612759565b82525050565b60006020820190506127876000830184612763565b92915050565b6000604051905090565b600080fd5b600080fd5b600080fd5b600080fd5b6000601f19601f8301169050919050565b7f4e487b7100000000000000000000000000000000000000000000000000000000600052604160045260246000fd5b6127f4826127ab565b810181811067ffffffffffffffff82111715612813576128126127bc565b5b80604052505050565b600061282661278d565b905061283282826127eb565b919050565b600067ffffffffffffffff821115612852576128516127bc565b5b61285b826127ab565b9050602081019050919050565b82818337600083830152505050565b600061288a61288584612837565b61281c565b9050828152602081018484840111156128a6576128a56127a6565b5b6128b1848285612868565b509392505050565b600082601f8301126128ce576128cd6127a1565b5b81356128de848260208601612877565b91505092915050565b6128f081612759565b81146128fb57600080fd5b50565b60008135905061290d816128e7565b92915050565b600080600080600060a0868803121561292f5761292e612797565b5b600086013567ffffffffffffffff81111561294d5761294c61279c565b5b612959888289016128b9565b955050602086013567ffffffffffffffff81111561297a5761297961279c565b5b612986888289016128b9565b9450506040612997888289016128fe565b93505060606129a8888289016128fe565b92505060806129b9888289016128fe565b9150509295509295909350565b600073ffffffffffffffffffffffffffffffffffffffff82169050919050565b60006129f1826129c6565b9050919050565b612a01816129e6565b8114612a0c57600080fd5b50565b600081359050612a1e816129f8565b92915050565b600067ffffffffffffffff821115612a3f57612a3e6127bc565b5b602082029050602081019050919050565b600080fd5b6000612a60826129c6565b9050919050565b612a7081612a55565b8114612a7b57600080fd5b50565b600081359050612a8d81612a67565b92915050565b6000612aa6612aa184612a24565b61281c565b90508083825260208201905060208402830185811115612ac957612ac8612a50565b5b835b81811015612af25780612ade8882612a7e565b845260208401935050602081019050612acb565b5050509392505050565b600082601f830112612b1157612b106127a1565b5b8135612b21848260208601612a93565b91505092915050565b600080600060608486031215612b4357612b42612797565b5b6000612b5186828701612a0f565b935050602084013567ffffffffffffffff811115612b7257612b7161279c565b5b612b7e868287016128b9565b925050604084013567ffffffffffffffff811115612b9f57612b9e61279c565b5b612bab86828701612afc565b9150509250925092565b60008060408385031215612bcc57612bcb612797565b5b6000612bda85828601612a7e565b925050602083013567ffffffffffffffff811115612bfb57612bfa61279c565b5b612c07858286016128b9565b9150509250929050565b600081519050919050565b60005b83811015612c3a578082015181840152602081019050612c1f565b83811115612c49576000848401525b50505050565b6000612c5a82612c11565b612c6481856126b6565b9350612c74818560208601612c1c565b612c7d816127ab565b840191505092915050565b60008115159050919050565b612c9d81612c88565b82525050565b612cac81612a55565b82525050565b6000610100820190508181036000830152612ccd818b612c4f565b9050612cdc602083018a612763565b612ce96040830189612763565b612cf66060830188612c94565b612d036080830187612763565b612d1060a0830186612763565b612d1d60c0830185612763565b612d2a60e0830184612ca3565b9998505050505050505050565b600060208284031215612d4d57612d4c612797565b5b6000612d5b84828501612a7e565b91505092915050565b600081519050919050565b600082825260208201905092915050565b6000819050602082019050919050565b600081519050919050565b600082825260208201905092915050565b6000612db782612d90565b612dc18185612d9b565b9350612dd1818560208601612c1c565b612dda816127ab565b840191505092915050565b6000612df18383612dac565b905092915050565b6000602082019050919050565b6000612e1182612d64565b612e1b8185612d6f565b935083602082028501612e2d85612d80565b8060005b85811015612e695784840389528151612e4a8582612de5565b9450612e5583612df9565b925060208a01995050600181019050612e31565b50829750879550505050505092915050565b60006020820190508181036000830152612e958184612e06565b905092915050565b6000602082019050612eb26000830184612ca3565b92915050565b600080600060608486031215612ed157612ed0612797565b5b6000612edf868287016128fe565b9350506020612ef0868287016128fe565b925050604084013567ffffffffffffffff811115612f1157612f1061279c565b5b612f1d868287016128b9565b9150509250925092565b600060208284031215612f3d57612f3c612797565b5b600082013567ffffffffffffffff811115612f5b57612f5a61279c565b5b612f67848285016128b9565b91505092915050565b7f4f776e61626c653a2063616c6c6572206973206e6f7420746865206f776e6572600082015250565b6000612fa66020836126b6565b9150612fb182612f70565b602082019050919050565b60006020820190508181036000830152612fd581612f99565b9050919050565b7f52657761726420706f6f6c2063616e2774206265207a65726f2e000000000000600082015250565b6000613012601a836126b6565b915061301d82612fdc565b602082019050919050565b6000602082019050818103600083015261304181613005565b9050919050565b7f4665652063616e2774206265207a65726f2e0000000000000000000000000000600082015250565b600061307e6012836126b6565b915061308982613048565b602082019050919050565b600060208201905081810360008301526130ad81613071565b9050919050565b7f4e487b7100000000000000000000000000000000000000000000000000000000600052601160045260246000fd5b60006130ee82612759565b91506130f983612759565b9250827fffffffffffffffffffffffffffffffffffffffffffffffffffffffffffffffff0382111561312e5761312d6130b4565b5b828201905092915050565b7f416d6f756e742070616964206d75737420657175616c2073756d206f6620726560008201527f7761726420706f6f6c2066756e64696e6720616e64207365727669636520666560208201527f652e000000000000000000000000000000000000000000000000000000000000604082015250565b60006131bb6042836126b6565b91506131c682613139565b606082019050919050565b600060208201905081810360008301526131ea816131ae565b9050919050565b60006131fc82612759565b915061320783612759565b9250817fffffffffffffffffffffffffffffffffffffffffffffffffffffffffffffffff04831182151516156132405761323f6130b4565b5b828202905092915050565b7f466565206d75737420657175616c203525206f6620746865207265776172642060008201527f706f6f6c2e000000000000000000000000000000000000000000000000000000602082015250565b60006132a76025836126b6565b91506132b28261324b565b604082019050919050565b600060208201905081810360008301526132d68161329a565b9050919050565b7f5375727665792069642063616e277420626520626c616e6b2e00000000000000600082015250565b60006133136019836126b6565b915061331e826132dd565b602082019050919050565b6000602082019050818103600083015261334281613306565b9050919050565b7f537572766579207469746c652063616e277420626520626c616e6b0000000000600082015250565b600061337f601b836126b6565b915061338a82613349565b602082019050919050565b600060208201905081810360008301526133ae81613372565b9050919050565b7f526573706f6e7365207265776172642063616e2774206265206c61726765722060008201527f7468616e207468652072657761726420706f6f6c2e0000000000000000000000602082015250565b60006134116035836126b6565b915061341c826133b5565b604082019050919050565b6000602082019050818103600083015261344081613404565b9050919050565b7f4e487b7100000000000000000000000000000000000000000000000000000000600052601260045260246000fd5b600061348182612759565b915061348c83612759565b92508261349c5761349b613447565b5b828206905092915050565b7f52657761726420706f6f6c20616d6f756e74206d75737420626520646976697360008201527f626c652062792074686520726573706f6e7365207265776172642e0000000000602082015250565b6000613503603b836126b6565b915061350e826134a7565b604082019050919050565b60006020820190508181036000830152613532816134f6565b9050919050565b7f52657761726420706f6f6c2077697468207468652070726f766964656420696460008201527f20616c7265616479206578697374732e00000000000000000000000000000000602082015250565b60006135956030836126b6565b91506135a082613539565b604082019050919050565b600060208201905081810360008301526135c481613588565b9050919050565b600081905092915050565b60006135e182612d90565b6135eb81856135cb565b93506135fb818560208601612c1c565b80840191505092915050565b600061361382846135d6565b915081905092915050565b600061362982612759565b91507fffffffffffffffffffffffffffffffffffffffffffffffffffffffffffffffff82141561365c5761365b6130b4565b5b600182019050919050565b600060608201905061367c6000830186612ca3565b818103602083015261368e8185612c4f565b905061369d6040830184612763565b949350505050565b60006040820190506136ba6000830185612763565b6136c76020830184612763565b9392505050565b7f4d7573742070726f7669646520612076616c696420757365722061646472657360008201527f732e000000000000000000000000000000000000000000000000000000000000602082015250565b600061372a6022836126b6565b9150613735826136ce565b604082019050919050565b600060208201905081810360008301526137598161371d565b9050919050565b7f546865207265666572656e636564207375727665792072657761726420706f6f60008201527f6c20646f6573206e6f742065786973742e000000000000000000000000000000602082015250565b60006137bc6031836126b6565b91506137c782613760565b604082019050919050565b600060208201905081810360008301526137eb816137af565b9050919050565b7f546865207265666572656e636564207375727665792072657761726420706f6f60008201527f6c20697320616c726561647920636c6f7365642e000000000000000000000000602082015250565b600061384e6034836126b6565b9150613859826137f2565b604082019050919050565b6000602082019050818103600083015261387d81613841565b9050919050565b600061388f82612759565b915061389a83612759565b9250828210156138ad576138ac6130b4565b5b828203905092915050565b7f4e487b7100000000000000000000000000000000000000000000000000000000600052603260045260246000fd5b7f41207061727469636970616e742068617320616c7265616479206265656e207260008201527f657761726465642e000000000000000000000000000000000000000000000000602082015250565b60006139436028836126b6565b915061394e826138e7565b604082019050919050565b6000602082019050818103600083015261397281613936565b9050919050565b7f5061727469636970616e7420616c726561647920636c61696d6564207468656960008201527f72207265776172642e0000000000000000000000000000000000000000000000602082015250565b60006139d56029836126b6565b91506139e082613979565b604082019050919050565b60006020820190508181036000830152613a04816139c8565b9050919050565b6000819050919050565b6000613a30613a2b613a26846129c6565b613a0b565b6129c6565b9050919050565b6000613a4282613a15565b9050919050565b6000613a5482613a37565b9050919050565b613a6481613a49565b82525050565b6000608082019050613a7f6000830187612ca3565b613a8c6020830186613a5b565b8181036040830152613a9e8185612c4f565b9050613aad6060830184612763565b95945050505050565b6000606082019050613acb6000830186613a5b565b8181036020830152613add8185612c4f565b9050613aec6040830184612763565b949350505050565b7f436f6e7472616374732066756e64732061726520746f6f206c6f7720746f207760008201527f697468647261772066726f6d2e00000000000000000000000000000000000000602082015250565b6000613b50602d836126b6565b9150613b5b82613af4565b604082019050919050565b60006020820190508181036000830152613b7f81613b43565b9050919050565b7f4e487b7100000000000000000000000000000000000000000000000000000000600052602260045260246000fd5b60006002820490506001821680613bcd57607f821691505b60208210811415613be157613be0613b86565b5b50919050565b7f5468652072657761726420706f6f6c20646f6573206e6f742065786973742e00600082015250565b6000613c1d601f836126b6565b9150613c2882613be7565b602082019050919050565b60006020820190508181036000830152613c4c81613c10565b9050919050565b7f5375727665792072657761726420706f6f6c20696e637265617365206d75737460008201527f206265206d6f7265207468616e207a65726f2e00000000000000000000000000602082015250565b6000613caf6033836126b6565b9150613cba82613c53565b604082019050919050565b60006020820190508181036000830152613cde81613ca2565b9050919050565b7f466565206d75737420657175616c203525206f662074686520616d6f756e742060008201527f706169642e000000000000000000000000000000000000000000000000000000602082015250565b6000613d416025836126b6565b9150613d4c82613ce5565b604082019050919050565b60006020820190508181036000830152613d7081613d34565b9050919050565b7f5468652072657761726420706f6f6c206d75737420626520616374697665207460008201527f6f20696e637265617365207468652066756e64732e0000000000000000000000602082015250565b6000613dd36035836126b6565b9150613dde82613d77565b604082019050919050565b60006020820190508181036000830152613e0281613dc6565b9050919050565b6000608082019050613e1e6000830187612ca3565b8181036020830152613e308186612c4f565b9050613e3f6040830185612763565b613e4c6060830184612763565b95945050505050565b7f4f776e61626c653a206e6577206f776e657220697320746865207a65726f206160008201527f6464726573730000000000000000000000000000000000000000000000000000602082015250565b6000613eb16026836126b6565b9150613ebc82613e55565b604082019050919050565b60006020820190508181036000830152613ee081613ea4565b905091905056fea26469706673582212201e5e6f73a7836ad0095f534c3ae0acaf3673b4a8ae53628a2119105e1da79d7864736f6c634300080b0033",
  "immutableReferences": {},
  "source": "// SPDX-License-Identifier: MIT\r\npragma solidity ^0.8.0;\r\n\r\n// Remix IDE import statements\r\n// import \"https://github.com/OpenZeppelin/openzeppelin-contracts/contracts/utils/math/SafeMath.sol\";\r\n// import \"https://github.com/OpenZeppelin/openzeppelin-contracts/contracts/access/Ownable.sol\";\r\n\r\n// Standard import statements\r\nimport \"@openzeppelin/contracts/utils/math/SafeMath.sol\";\r\nimport \"@openzeppelin/contracts/access/Ownable.sol\";\r\n\r\nstruct IndexValue { uint keyIndex; address value; }\r\nstruct KeyFlag { address key; bool deleted; }\r\n\r\nstruct itmap {\r\n    mapping(address => IndexValue) data;\r\n    KeyFlag[] keys;\r\n    uint size;\r\n}\r\n\r\nlibrary IterableMapping {\r\n    function insert(itmap storage self, address key, address value) internal returns (bool replaced) {\r\n        uint keyIndex = self.data[key].keyIndex;\r\n        self.data[key].value = value;\r\n        if (keyIndex > 0)\r\n            return true;\r\n        else {\r\n            keyIndex = self.keys.length;\r\n            self.keys.push();\r\n            self.data[key].keyIndex = keyIndex + 1;\r\n            self.keys[keyIndex].key = key;\r\n            self.size++;\r\n            return false;\r\n        }\r\n    }\r\n\r\n   function remove(itmap storage self, address key) internal returns (bool success) {\r\n        uint keyIndex = self.data[key].keyIndex;\r\n        if (keyIndex == 0)\r\n            return false;\r\n        delete self.data[key];\r\n        self.keys[keyIndex - 1].deleted = true;\r\n        self.size --;\r\n    }\r\n\r\n    function contains(itmap storage self, address key) internal view returns (bool) {\r\n        return self.data[key].keyIndex > 0;\r\n    }\r\n\r\n    function iterate_start(itmap storage self) internal view returns (uint keyIndex) {\r\n        return iterate_next(self, type(uint).max);\r\n    }\r\n\r\n    function iterate_valid(itmap storage self, uint keyIndex) internal view returns (bool) {\r\n        return keyIndex < self.keys.length;\r\n    }\r\n\r\n    function iterate_next(itmap storage self, uint keyIndex) internal view returns (uint) {\r\n        keyIndex++;\r\n        while (keyIndex < self.keys.length && self.keys[keyIndex].deleted)\r\n            keyIndex++;\r\n        return keyIndex;\r\n    }\r\n\r\n    function iterate_get(itmap storage self, uint keyIndex) internal view returns (address key, address value) {\r\n        key = self.keys[keyIndex].key;\r\n        value = self.data[key].value;\r\n    }\r\n}\r\n\r\ncontract ApeSurveyContract is Ownable {\r\n    using SafeMath for uint256;\r\n    using IterableMapping for itmap;\r\n    constructor() payable {}\r\n\r\n    // Structs\r\n    struct RewardPool {\r\n        bytes title;\r\n        uint256 totalFunds;\r\n        uint256 totalRewarded;\r\n        bool active;\r\n        uint256 responseReward;\r\n        uint256 createdAt;\r\n        uint256 closesAt;\r\n        address creator;\r\n    }\r\n\r\n    // State Variables\r\n    // mapping of user addresses to survey ids.\r\n    mapping(address => bytes[]) private userSurveyIdMap;\r\n    // userRewardPoolMap maps users to their reward pools keyed by the SM survey id.\r\n    mapping(address => mapping(bytes => RewardPool)) private userRewardPoolMap;\r\n    mapping(address => mapping(bytes => itmap)) private participantMap;\r\n\r\n    // current metrics\r\n    uint256 private currentRewardPoolBalance;\r\n    uint256 private feeBalance;\r\n\r\n    // cummulative metrics\r\n    uint256 private totalRewardsPaidOut; // total amount of wei paid to participants.\r\n    uint256 private totalRewardPoolFunding; // total amount of wei to fund reward pools.\r\n    uint256 private totalResponses; // total number of responses.\r\n    uint256 private totalRewardPoolsFunded; // total number of reward pools funded.\r\n\r\n    // withdrawFees allows the contract owner to withdraw the service fee balance made.\r\n    function withdrawFees() public onlyOwner {\r\n        require(\r\n            feeBalance > 0,\r\n            \"Contracts funds are too low to withdraw from.\"\r\n        );\r\n        payable(owner()).transfer(feeBalance);\r\n\r\n        feeBalance = 0;\r\n    }\r\n\r\n    // getFeeBalance returns the current balance of service fees accrued.\r\n    function getFeeBalance() public view onlyOwner returns (uint256) {\r\n        return feeBalance;\r\n    }\r\n\r\n    // Getters\r\n    // get the list of survey pool ids for a particular user.\r\n    function getUserRewardPoolIds(address _user)\r\n        public\r\n        view\r\n        onlyOwner\r\n        returns (bytes[] memory)\r\n    {\r\n        return userSurveyIdMap[_user];\r\n    }\r\n\r\n    // getRewardPoolIds gets the list of reward pool id's created by the sender.\r\n    function getRewardPoolIds() public view returns (bytes[] memory) {\r\n        return userSurveyIdMap[msg.sender];\r\n    }\r\n\r\n    // get the reward pool for any user.\r\n    function getUserRewardPool(address _user, string memory _poolId)\r\n        public\r\n        view\r\n        onlyOwner\r\n        returns (\r\n            string memory,\r\n            uint256,\r\n            uint256,\r\n            bool,\r\n            uint256,\r\n            uint256,\r\n            uint256,\r\n            address\r\n        )\r\n    {\r\n        RewardPool memory pool = userRewardPoolMap[_user][bytes(_poolId)];\r\n        address zeroAddress;\r\n        require(pool.creator != zeroAddress, \"The reward pool does not exist.\");\r\n        return (\r\n            string(pool.title),\r\n            pool.totalFunds,\r\n            pool.totalRewarded,\r\n            pool.active,\r\n            pool.responseReward,\r\n            pool.createdAt,\r\n            pool.closesAt,\r\n            pool.creator\r\n        );\r\n    }\r\n\r\n    function internalGetRewardPool(address _creator, string memory _poolId)\r\n        private\r\n        view\r\n        returns (RewardPool memory)\r\n    {\r\n        RewardPool memory pool = userRewardPoolMap[_creator][bytes(_poolId)];\r\n\r\n        return pool;\r\n    }\r\n\r\n    function getCurrentRewardPoolBalance()\r\n        public\r\n        view\r\n        onlyOwner\r\n        returns (uint256)\r\n    {\r\n        return currentRewardPoolBalance;\r\n    }\r\n\r\n    function getTotalRewardsPaidOut() public view onlyOwner returns (uint256) {\r\n        return totalRewardsPaidOut;\r\n    }\r\n\r\n    function getTotalRewardPoolFunding()\r\n        public\r\n        view\r\n        onlyOwner\r\n        returns (uint256)\r\n    {\r\n        return totalRewardPoolFunding;\r\n    }\r\n\r\n    function getTotalResponses() public view onlyOwner returns (uint256) {\r\n        return totalResponses;\r\n    }\r\n\r\n    function getTotalRewardPoolsFunded()\r\n        public\r\n        view\r\n        onlyOwner\r\n        returns (uint256)\r\n    {\r\n        return totalRewardPoolsFunded;\r\n    }\r\n\r\n    // Events\r\n    event SurveyFunded(address _user, string _poolId, uint256 _amount);\r\n    event RewardPoolClosed(address _user, string _poolId, uint256 _rewarded);\r\n    event RewardPoolIncreased(\r\n        address _user,\r\n        string _poolId,\r\n        uint256 amount,\r\n        uint256 _newTotal\r\n    );\r\n    event RewardPaidOut(\r\n        address _participant,\r\n        address _creator,\r\n        string _poolId,\r\n        uint256 _amount\r\n    );\r\n    event RewardFundsReturned(address _user, string _poolId, uint256 _amount);\r\n    event FeeRevenueEvent(uint256 _fee, uint256 ts);\r\n\r\n    // Functions\r\n\r\n    /**\r\n     * createRewardPool allows a user to create a reward pool to fund a survey.\r\n     * The function creates and saves the reward pool object, and sends the fee to the owner address.\r\n     */\r\n    function createRewardPool(\r\n        string memory _id,\r\n        string memory _title,\r\n        uint256 _amount,\r\n        uint256 _fee,\r\n        uint256 _responseReward\r\n    ) public payable {\r\n        bytes memory title = bytes(_title);\r\n        bytes memory poolId = bytes(_id);\r\n        require(_amount > 0, \"Reward pool can't be zero.\");\r\n        require(_fee > 0, \"Fee can't be zero.\");\r\n        require(\r\n            _amount + _fee == msg.value,\r\n            \"Amount paid must equal sum of reward pool funding and service fee.\"\r\n        );\r\n        require(_fee * 20 == _amount, \"Fee must equal 5% of the reward pool.\");\r\n        require(poolId.length != 0, \"Survey id can't be blank.\");\r\n        require(title.length != 0, \"Survey title can't be blank\");\r\n        require(\r\n            _responseReward <= _amount,\r\n            \"Response reward can't be larger than the reward pool.\"\r\n        );\r\n        require(\r\n            _amount % _responseReward == 0,\r\n            \"Reward pool amount must be divisble by the response reward.\"\r\n        );\r\n\r\n        // reward pool with that id should not already exist.\r\n        RewardPool memory pool = internalGetRewardPool(msg.sender, _id);\r\n        address zeroAddress;\r\n        require(\r\n            pool.creator == zeroAddress,\r\n            \"Reward pool with the provided id already exists.\"\r\n        );\r\n\r\n        userRewardPoolMap[msg.sender][poolId] = RewardPool(\r\n            title,\r\n            _amount,\r\n            0,\r\n            true,\r\n            _responseReward,\r\n            block.timestamp,\r\n            block.timestamp,\r\n            msg.sender\r\n        ); \r\n\r\n        userSurveyIdMap[msg.sender].push(title);\r\n        currentRewardPoolBalance += _amount;\r\n        totalRewardPoolFunding += _amount;\r\n        totalRewardPoolsFunded++;\r\n        feeBalance += _fee;\r\n\r\n        emit SurveyFunded(msg.sender, string(poolId), _amount);\r\n        emit FeeRevenueEvent(_fee, block.timestamp);\r\n    }\r\n\r\n    // getRewardPool allows someone to get a specific reward pool they have created.\r\n    function getRewardPool(string memory _poolId)\r\n        public\r\n        view\r\n        returns (\r\n            string memory,\r\n            uint256,\r\n            uint256,\r\n            bool,\r\n            uint256,\r\n            uint256,\r\n            uint256,\r\n            address\r\n        )\r\n    {\r\n        RewardPool memory pool = internalGetRewardPool(msg.sender, _poolId);\r\n        address zeroAddress;\r\n        require(pool.creator != zeroAddress, \"The reward pool does not exist.\");\r\n        return (\r\n            string(pool.title),\r\n            pool.totalFunds,\r\n            pool.totalRewarded,\r\n            pool.active,\r\n            pool.responseReward,\r\n            pool.createdAt,\r\n            pool.closesAt,\r\n            pool.creator\r\n        );\r\n    }\r\n\r\n    // rewardPoolIncrease allows a reward pool creator to increase the funds allocated to an existing reward pool.\r\n    function rewardPoolIncrease(\r\n        uint256 _amount,\r\n        uint256 _fee,\r\n        string memory _poolId\r\n    ) public payable {\r\n        require(\r\n            _amount > 0,\r\n            \"Survey reward pool increase must be more than zero.\"\r\n        );\r\n        require(_fee > 0, \"Fee can't be zero.\");\r\n        require(\r\n            _amount + _fee == msg.value,\r\n            \"Amount paid must equal sum of reward pool funding and service fee.\"\r\n        );\r\n        require(_fee * 20 == _amount, \"Fee must equal 5% of the amount paid.\");\r\n\r\n        RewardPool memory rewardPool = internalGetRewardPool(\r\n            msg.sender,\r\n            _poolId\r\n        );\r\n        // check that the reward pool exists.\r\n        address zeroAddress;\r\n        require(\r\n            rewardPool.creator != zeroAddress,\r\n            \"The reward pool does not exist.\"\r\n        );\r\n        require(\r\n            rewardPool.active == true,\r\n            \"The reward pool must be active to increase the funds.\"\r\n        );\r\n        rewardPool.totalFunds += _amount;\r\n        userRewardPoolMap[msg.sender][bytes(_poolId)] = rewardPool;\r\n        feeBalance += _fee;\r\n        totalRewardPoolFunding += _amount;\r\n        currentRewardPoolBalance += _amount;\r\n\r\n        emit RewardPoolIncreased(\r\n            msg.sender,\r\n            _poolId,\r\n            _amount,\r\n            rewardPool.totalFunds\r\n        );\r\n        emit FeeRevenueEvent(_fee, block.timestamp);\r\n    }\r\n\r\n    // closeRewardPool triggers the event in where all earned funds are sent to the participant addresses,\r\n    // the unearned balance on the reward pool is returned to the creator, the and reward pool is set as inactive.\r\n    function closeRewardPool(\r\n        address payable _creator,\r\n        string memory _poolId,\r\n        address[] memory participants\r\n    ) public onlyOwner {\r\n        address zeroAddress;\r\n        require(_creator != zeroAddress, \"Must provide a valid user address.\");\r\n        RewardPool memory pool = internalGetRewardPool(_creator, _poolId);\r\n        require(\r\n            pool.creator != zeroAddress,\r\n            \"The referenced survey reward pool does not exist.\"\r\n        );\r\n        require(\r\n            pool.active == true || pool.closesAt < block.timestamp,\r\n            \"The referenced survey reward pool is already closed.\"\r\n        );\r\n\r\n        uint256 totalPayout = pool.responseReward * participants.length;\r\n        uint256 totalReturn = pool.totalFunds - totalPayout;\r\n\r\n        totalRewardsPaidOut += totalPayout;\r\n        totalResponses += participants.length;\r\n        currentRewardPoolBalance -= pool.totalFunds;\r\n\r\n        // return unearned pool funds to creator\r\n        payable(_creator).transfer(totalReturn);\r\n        // for each address in participants pay them the response reward\r\n        for (uint256 i = 0; i < participants.length; i++) {\r\n            address participant = participants[i];\r\n            bool paid = participantMap[_creator][bytes(_poolId)].contains(participant);\r\n            require(paid == false, \"A participant has already been rewarded.\");\r\n            payable(participant).transfer(pool.responseReward);\r\n\r\n            bool replaced = participantMap[_creator][bytes(_poolId)].insert(participant, participant);\r\n            require(replaced == false, \"Participant already claimed their reward.\");\r\n            emit RewardPaidOut(\r\n                participant,\r\n                _creator,\r\n                _poolId,\r\n                pool.responseReward\r\n            );\r\n        }\r\n\r\n        pool.active = false;\r\n        pool.totalRewarded = totalPayout;\r\n        userRewardPoolMap[_creator][bytes(_poolId)] = pool;\r\n\r\n        emit RewardPoolClosed(_creator, _poolId, participants.length);\r\n        emit RewardFundsReturned(_creator, _poolId, totalReturn);\r\n    }\r\n\r\n    // claimReward \r\n    // function claimReward(\r\n    //     address _participant,\r\n    //     address _creator,\r\n    //     string memory _poolId\r\n    // ) public onlyOwner {\r\n    //     RewardPool memory pool = internalGetRewardPool(_creator, _poolId);\r\n    //     address zeroAddress;\r\n    //     require(pool.creator != zeroAddress, \"Reward pool does not exist.\");\r\n    //     require(pool.active == true, \"The reward pool is closed.\");\r\n\r\n    //     // ensure the participant has not already claimed their reward.\r\n    //     bool claimed = participantMap[_creator][bytes(_poolId)].contains(_participant);\r\n    //     require(\r\n    //         claimed == false,\r\n    //         \"Participant has already claimed the reward.\"\r\n    //     );\r\n\r\n    //     payable(_participant).transfer(pool.responseReward);\r\n\r\n    //     totalRewardsPaidOut += pool.responseReward;\r\n    //     totalResponses++;\r\n\r\n    //     pool.totalRewarded += pool.responseReward;\r\n    //     bool replaced = participantMap[_creator][bytes(_poolId)].insert(_participant, _participant);\r\n    //     require(replaced == false, \"Participant already claimed their reward.\");\r\n    //     userRewardPoolMap[_creator][bytes(_poolId)] = pool;\r\n\r\n    //     emit RewardPaidOut(\r\n    //         _participant,\r\n    //         _creator,\r\n    //         _poolId,\r\n    //         pool.responseReward\r\n    //     );\r\n    // }\r\n\r\n    fallback() external payable {\r\n        require(\r\n            msg.sender == owner(),\r\n            \"Only the owner can send funds via the fallback function.\"\r\n        );\r\n    }\r\n\r\n    receive() external payable {\r\n        require(\r\n            msg.sender == owner(),\r\n            \"Only the owner can send funds via the fallback function.\"\r\n        );\r\n    }\r\n}\r\n",
  "sourcePath": "C:\\Users\\brand\\Documents\\Projects\\ApeSurvey\\ape-survey\\contracts\\ApeSurveyContract.sol",
  "compiler": {
    "name": "solc",
    "version": "0.8.11+commit.d7f03943.Emscripten.clang"
  },
  "schemaVersion": "3.4.4",
  "updatedAt": "2021-12-21T22:38:56.384Z",
  "networkType": "ethereum",
  "devdoc": {
    "kind": "dev",
    "methods": {
      "owner()": {
        "details": "Returns the address of the current owner."
      },
      "renounceOwnership()": {
        "details": "Leaves the contract without owner. It will not be possible to call `onlyOwner` functions anymore. Can only be called by the current owner. NOTE: Renouncing ownership will leave the contract without an owner, thereby removing any functionality that is only available to the owner."
      },
      "transferOwnership(address)": {
        "details": "Transfers ownership of the contract to a new account (`newOwner`). Can only be called by the current owner."
      }
    },
    "version": 1
  },
  "userdoc": {
    "kind": "user",
    "methods": {
      "createRewardPool(string,string,uint256,uint256,uint256)": {
        "notice": "createRewardPool allows a user to create a reward pool to fund a survey. The function creates and saves the reward pool object, and sends the fee to the owner address."
      }
    },
    "version": 1
  }
}